:100000000C9462000C948A000C948A000C948A0070
:100010000C948A000C948A000C948A000C948A0038
:100020000C948A000C948A000C948A000C948A0028
:100030000C948A000C948A000C948A000C948A0018
:100040000C94920C0C948A000C94600C0C943A0C56
:100050000C948A000C948A000C948A000C948A00F8
:100060000C948A000C948A000000000024002700F1
:100070002A0000000000250028002B0000000000DE
:1000800023002600290004040404040404040202DA
:100090000202020203030303030301020408102007
:1000A0004080010204081020010204081020000012
:1000B0000008000201000003040700000000000027
:1000C0000000DC0C11241FBECFEFD8E0DEBFCDBF97
:1000D00023E0AEE8B2E001C01D92AB3CB207E1F70D
:1000E00012E0A0E0B1E0E0E1F3E202C005900D9281
:1000F000AE38B107D9F710E0C2E6D0E004C02197CE
:10010000FE010E94850FC136D107C9F70E94190D63
:100110000C9486110C9400002091C5033091C60305
:100120002F5F3F4F3093C6032093C5039091C103C7
:100130009923C1F090E09C01359527952575880F8E
:10014000991F8A7A822B282F30E0C90195958795CF
:10015000959587958373220F331F220F331F2C7CB5
:10016000822B82952091C3033091C403A9015827A3
:10017000CA014091BB035091BC0328E0BC01880F29
:10018000991F77FF02C0842795272150B9F79093D4
:10019000C4038093C30308958091C3039091C40363
:1001A0002091C203222371F19C0136952795257574
:1001B0003575880F991F8A7A9A7A822B932B9C0126
:1001C000369527953695279523733373880F991F96
:1001D000880F991F8C7C9C7C282B392BC901E4E06B
:1001E00096958795EA95E1F78F709F70F4E0220F5E
:1001F000331FFA95E1F7207F307F822B932B9827CE
:10020000892798272091BF033091C0038227932725
:100210000895AF92BF92CF92DF92EF92FF920F9329
:100220001F93CF93DF936C017B018B01040F151F8C
:10023000EB015E01AE18BF08C017D10759F06991F4
:10024000D601ED91FC910190F081E02DC601099558
:10025000892B79F7C501DF91CF911F910F91FF9005
:10026000EF90DF90CF90BF90AF900895FC01448154
:100270005581608171818EE193E00C940901FC014C
:10028000538D448D252F30E0842F90E0821B930BFB
:10029000541710F0CF96089501970895FC01918DA1
:1002A000828D981761F0A28DAE0FBF2FB11D5D96A4
:1002B0008C91928D9F5F9F73928F90E008958FEF46
:1002C0009FEF0895FC01918D828D981731F0828DFA
:1002D000E80FF11D858D90E008958FEF9FEF089551
:1002E000FC01918D228D892F90E0805C9F4F821BB5
:1002F00091098F73992708958EE193E00E94700110
:1003000021E0892B09F420E0822F089580E090E01D
:10031000892B29F00E947C0181110C940000089522
:10032000FC01A48DA80FB92FB11DA35ABF4F2C916A
:10033000848D90E001968F739927848FA689B78961
:100340002C93A089B1898C91837080648C93938D58
:10035000848D981306C00288F389E02D80818F7DFB
:1003600080830895EF92FF920F931F93CF93DF93B3
:10037000EC0181E0888F9B8D8C8D98131AC0E889E1
:10038000F989808185FF15C09FB7F894EE89FF89B0
:100390006083E889F98980818370806480839FBF4E
:1003A00081E090E0DF91CF911F910F91FF90EF904E
:1003B0000895F62E0B8D10E00F5F1F4F0F7311275E
:1003C000E02E8C8D8E110CC00FB607FCFACFE88999
:1003D000F989808185FFF5CFCE010E949001F1CF90
:1003E000EB8DEC0FFD2FF11DE35AFF4FF0829FB70D
:1003F000F8940B8FEA89FB8980818062CFCFCF93FD
:10040000DF93EC01888D8823B9F0AA89BB89E8893C
:10041000F9898C9185FD03C0808186FD0DC00FB6E2
:1004200007FCF7CF8C9185FFF2CF808185FFEDCF60
:10043000CE010E949001E9CFDF91CF9108958330E2
:1004400081F028F4813099F08230A9F00895873046
:10045000A9F08830C9F08430B1F4809180008F7D9C
:1004600003C0809180008F7780938000089584B5C9
:100470008F7784BD089584B58F7DFBCF8091B000C8
:100480008F778093B00008958091B0008F7DF9CF71
:10049000CF93DF93282F30E0F901E255FF4F84918D
:1004A000F901E656FF4FD491F901EA57FF4FC49185
:1004B000CC23A1F081110E941F02EC2FF0E0EE0F7F
:1004C000FF1FE458FF4FA591B491EC91ED2381E01B
:1004D00090E009F480E0DF91CF91089580E090E012
:1004E000FACF1F93CF93DF93282F30E0F901E25525
:1004F000FF4F8491F901E656FF4FD491F901EA5775
:10050000FF4FC491CC23A9F0162F81110E941F0226
:10051000EC2FF0E0EE0FFF1FEE58FF4FA591B491C6
:100520008FB7F894EC91111108C0D095DE23DC93BD
:100530008FBFDF91CF911F910895DE2BF8CFCF931E
:10054000DF9390E0FC01E656FF4F24918A579F4FBE
:10055000FC0184918823C9F090E0880F991FFC0169
:10056000E859FF4FA591B491FC01EE58FF4FC5919A
:10057000D49161110DC09FB7F8948C91209582237E
:100580008C938881282328839FBFDF91CF91089582
:10059000623051F49FB7F8943C91822F8095832369
:1005A0008C93E8812E2BEFCF8FB7F894EC912E2B04
:1005B0002C938FBFEACF3FB7F8948091930290912C
:1005C0009402A0919502B091960226B5A89B05C011
:1005D0002F3F19F00196A11DB11D3FBFBA2FA92FC2
:1005E000982F8827BC01CD01620F711D811D911DBF
:1005F00042E0660F771F881F991F4A95D1F708952B
:100600008F929F92AF92BF92CF92DF92EF92FF9222
:100610006B017C010E94DB024B015C01C114D1041F
:10062000E104F104B9F00E94DB02681979098A0932
:100630009B09683E73408105910580F321E0C21A51
:10064000D108E108F10888EE880E83E0981EA11C0D
:10065000B11CE4CFFF90EF90DF90CF90BF90AF90B0
:100660009F908F9008952FB7F89460918F027091AA
:10067000900280919102909192022FBF0895CF92A3
:10068000DF92EF92FF920F931F93CF930E94330359
:100690006B017C0124E6C20ED11CE11CF11C0BE8AD
:1006A00011E00E9433036C157D058E059F0508F04F
:1006B00048C085E00E944802892B09F43EC086E0CC
:1006C0000E944802892BC9F566E070E080E090E066
:1006D0000E94000307E010E0C0E0C12CD12C76019D
:1006E000C39485E00E944802892B81F486E00E9431
:1006F0004802892B59F0D701C601002E04C0880F8B
:10070000991FAA1FBB1F0A94D2F7C82B65E070E09F
:1007100080E090E00E9400030150110910F781E091
:1007200080931C03C0931D039C2FCF911F910F91A9
:10073000FF90EF90DF90CF900895C8010197F1F7F7
:10074000B0CF10921C0310921D0380E090E0EDCF1B
:100750000F931F930E943303609326037093270324
:1007600080932803909329038EE193E00E94620115
:1007700097FF1DC00E9433030091260310912703A9
:100780002091280330912903601B710B820B930B7E
:10079000009122031091230320912403309125031B
:1007A0006017710782079307F8F28FEF9FEF1F9191
:1007B0000F9108950F931F930E94330360932603B4
:1007C0007093270380932803909329038EE193E08D
:1007D0000E944E0197FF1DC00E9433030091260323
:1007E000109127032091280330912903601B710B7E
:1007F000820B930B00912203109123032091240379
:10080000309125036017710782079307F8F28FEF85
:100810009FEF1F910F910895AC0120919702222321
:1008200051F083E4E7E9F2E0DA0101900D928A9554
:10083000E1F7CA010895809198029091990200977A
:1008400011F46E3771F7FC01E956FD4F6383019691
:1008500090939902809398028230910538F021E0BC
:100860006E3721F08034910508F420E02093970240
:10087000E0CFCF93DF93CDB7DEB7A1970FB6F89453
:10088000DEBF0FBECDBF90E0B0E0A0E019A2FE0138
:10089000B196AC01BD014F7055276627772724E03C
:1008A000B695A795979587952A95D1F74A3004F57F
:1008B000405D42930097A105B10559F790E080E0B3
:1008C000309769F0DF010D900020E9F71197AD0135
:1008D0004E1B5F0BBF018EE193E00E940901A196C0
:1008E0000FB6F894DEBF0FBECDBFDF91CF91089554
:1008F000495CDFCFFC0101900020E9F73197AF019F
:10090000481B590BBC018EE193E00C940901CF9276
:10091000DF92EF92FF920F931F93CF93DF93F82E06
:10092000E62E61E085E00E949F0261E086E00E9481
:100930009F026FEF85E00E94710260E086E00E94F6
:10094000710265E070E080E090E00E940003C7E083
:10095000D0E0CF2CD12C86010C2E02C01595079526
:100960000A94E2F7B801609570956170772785E089
:100970000E947102B8016170772786E00E947102BF
:1009800065E070E080E090E00E940003219718F796
:1009900060E085E00E9471026FEF86E00E947102C4
:1009A00065E070E080E090E00E940003EE2041F0FE
:1009B00060E085E00E949F0262E086E00E949F0264
:1009C0008FE08F1578F08CE191E00E947A048F2DF2
:1009D000DF91CF911F910F91FF90EF90DF90CF901B
:1009E0000C94390488E191E0F0CFCF930E94CC00C1
:1009F000C82F60E0892F0E94870460E08C2FCF9180
:100A00000C9487040F93CF93C82F811119C0822FA4
:100A1000C22FC17021FDC26082FDC4604111C86057
:100A2000862F60FDC06181FDC06282FDC06460E010
:100A30008C2F0E9487048C2FCF910F910C948C00E7
:100A40008038A9F7822F20FDC1E881FDC26082FDB8
:100A5000C4604111C860002351F3C061E8CFEBEBE3
:100A6000F3E0228133813187208713861286682F35
:100A70008EE70C948704CF93DF93E2EEF2E02AE353
:100A8000DF011D922A95E9F7EC014C815D81342F3D
:100A9000252F4A33510510F03AE320E03093E0026D
:100AA0002093E102A2EEB2E030E020E042175307CB
:100AB00089F0EC01E881F981309749F41092DF0266
:100AC000EFEDF2E060816D932F5F3F4FEFCFE20FCC
:100AD000F31FF8CFDF91CF910895E7E9F2E010829C
:100AE00012821182EAE9F2E080E4DF011D928A9528
:100AF000E9F70895FC0124813581232B39F421E0A5
:100B0000FB018081882349F020E007C0808191812A
:100B10000E94761121E0892BB9F7822F08950F9357
:100B20001F93CF93DF93EC0188819981009759F04F
:100B30002A813B812617370730F081E0DF91CF9182
:100B40001F910F9108958B016F5F7F4F0E94B0102E
:100B5000009759F0998388831B830A832C813D81F8
:100B6000232B59F7FC011082E8CF80E0E7CFEF920A
:100B7000FF920F931F93CF93DF936115710541F49B
:100B800080E0DF91CF911F910F91FF90EF9008953A
:100B900041155105B1F07B01EC010C811D81040F61
:100BA000151FB8010E948F05882351F328813981D0
:100BB0008C819D81B701820F931F0E947F111D833D
:100BC0000C8381E0DECFCF93DF93EC0188819981A4
:100BD000009711F00E942710198218821D821C8232
:100BE0001B821A82DF91CF910895EF92FF920F93AB
:100BF0001F93CF93DF9300D000D000D01F92CDB7CA
:100C0000DEB77C01CB014AE08E010F5F1F4FB801B8
:100C10000E940A0FF80101900020E9F73197AF0117
:100C2000401B510BB801C7010E94B705811103C0D9
:100C3000C7010E94E305C70127960FB6F894DEBFEF
:100C40000FBECDBFDF91CF911F910F91FF90EF901D
:100C50000895EF92FF920F931F93CF93DF93CDB739
:100C6000DEB728970FB6F894DEBF0FBECDBF7C016C
:100C7000CB014AE08E010F5F1F4FB8010E94FF0EAB
:100C8000F80101900020E9F73197AF01401B510BAB
:100C9000B801C7010E94B705811103C0C7010E94B6
:100CA000E305C70128960FB6F894DEBF0FBECDBF8F
:100CB000DF91CF911F910F91FF90EF900895CF9307
:100CC000DF93EC01FB0101900020E9F73197AF01C0
:100CD000461B570B0E94B705811103C0CE010E942D
:100CE000E305CE01DF91CF910895CF93DF93EC011F
:100CF000FB0144815581608171810E94B70581119A
:100D000003C0CE010E94E305CE01DF91CF9108958B
:100D1000EF92FF920F931F93CF93DF93EC01198211
:100D200018821B821A821D821C828617970719F16E
:100D3000FB010081118101151105E9F0E480F580C6
:100D4000B7010E948F05811109C0CE01DF91CF91BB
:100D50001F910F91FF90EF900C94E305FD82EC82C0
:100D6000B80188819981DF91CF911F910F91FF90F8
:100D7000EF900C947F11DF91CF911F910F91FF9015
:100D8000EF900895EF92FF920F931F93CF93DF930D
:100D9000EC017B01198218821B821A821D821C823F
:100DA000FB0101900020E9F731978F01061B170B1B
:100DB000B8010E948F05811109C0CE01DF91CF914A
:100DC0001F910F91FF90EF900C94E3051D830C830E
:100DD000B70188819981DF91CF911F910F91FF9089
:100DE000EF900C947F11FC0180819181009711F0AC
:100DF0000C9427100895EF92FF920F931F93CF93B7
:100E0000DF93CDB7DEB72C970FB6F894DEBF0FBED9
:100E1000CDBF182F81E090E0611107C0442349F055
:100E20008091DD029091DE0201969093DE02809324
:100E3000DD0281E291E00E947A0480E00E942F05A9
:100E40001093DA0260E0812F0E948704812F0E94B4
:100E50008C0000E02091DB0241E06091DD0280E047
:100E60000E940205E090E002F090E102E114F1043A
:100E7000D9F002EE12E09801225E3240C7014BE346
:100E8000E416F10410F08AE390E02817390798F48B
:100E900060E0F80181918F010E948704F801319789
:100EA00080810E948C00E7CF60E080E00E94870490
:100EB00080E00E948C000E94F50481E00E942F05D2
:100EC0000091DB021091DC02E090DD02F090DE0286
:100ED00068E271E0CE0107960E94C206BE01695F1A
:100EE0007F4FCE0101960E948806B701CE01019680
:100EF0000E94F5056FE271E00E945F06B8010E9452
:100F0000F50566E371E00E945F0662EE72E00E9402
:100F10005F066FE371E00E945F0661E070E00E948F
:100F2000290666E471E00E945F060E943601CE0148
:100F300001960E94F306CE0107960E94F3062C96B6
:100F40000FB6F894DEBF0FBECDBFDF91CF911F91DA
:100F50000F91FF90EF9008956F927F928F929F92E2
:100F6000AF92BF92CF92DF92EF92FF920F931F93B7
:100F7000CF93DF93CDB7DEB7CC54D1090FB6F89439
:100F8000DEBF0FBECDBF81E090E09093DC02809386
:100F9000DB0280919702712C8823F1F100919C0271
:100FA000C02ED12CE3E0D594C794EA95E1F76AEF1F
:100FB00070E080E090E00E94000382E691E00E94F1
:100FC0007A04F12C20919802309199020F2D10E0B3
:100FD00002171307A0F409561D4FD80113968C91E0
:100FE000803150F088E191E00E947A04F801838119
:100FF0000E943904F394E6CF8CE191E0F5CF709034
:101000009B02F1E07F16F9F089E691E00E947A04F4
:101010000E946D0579E0772E872DC45BDF4F0FB6F8
:10102000F894DEBF0FBECDBFDF91CF911F910F911E
:10103000FF90EF90DF90CF90BF90AF909F908F90F8
:101040007F906F90089580919C0290E0AC01440FD6
:10105000452F441F550B452B09F07BC2CE0101964D
:101060007C018AE3D7011D928A95E9F740E026507A
:101070003109842F90E08217930758F4F701E80FA5
:10108000F91F89569D4FDC0116968C9180834F5F26
:10109000F0CF8091BD039091BE039093C4038093E1
:1010A000C3031092C6031092C503B12C009198029D
:1010B000109199028B2D90E09801245031098217EC
:1010C000930740F489569D4FFC0184810E948C0057
:1010D000B394ECCF0E94CC00292F3327F801E956B6
:1010E000FD4F40814217130639F421819927662468
:1010F00063942817190609F0612C8091BD03909123
:10110000BE039093C4038093C3031092C60310924E
:10111000C5038601017011278EE4C82E81E0D82E08
:10112000611004C0B1E5CB2EB1E0DB2EA090DB0254
:10113000B090DC028090DD029090DE0268E271E007
:10114000CE018F5B9F4F0E94C206BE016F5B7F4F37
:10115000CE01CB960E948806B401CE01CB960E94A8
:10116000F5056FE271E00E945F06B5010E94F5058A
:1011700066E371E00E945F06B7010E945F0661E7C7
:1011800071E00E945F06B6010E945F0660E471E0B4
:101190000E945F06B8010E94290666E471E00E9481
:1011A0005F060E943601CE01CB960E94F306CE0167
:1011B0008F5B9F4F0E94F3060091DB021091DC02CF
:1011C000A090DD02B090DE02B701CE01CB960E9466
:1011D000C20668E771E0CE01895B9F4F0E94C2069C
:1011E000BE01695B7F4FCE018F5B9F4F0E948806D7
:1011F000BE01655C7F4FCE018F5B9F4F0E947506DD
:1012000061E771E00E945F06B6010E945F0668E236
:1012100071E00E945F06B5010E94F5056FE271E082
:101220000E945F06B8010E94F50563E871E00E9424
:101230005F060E943601CE018F5B9F4F0E94F3062E
:10124000CE01895B9F4F0E94F306CE01CB960E9490
:10125000F3068091DA02803108F41CC188E191E044
:101260000E947A048091DA020E943904C090DB0265
:10127000D090DC0205E511E0611002C001E511E04B
:1012800069E871E0CE018F5B9F4F0E94C206BE01EC
:101290006F5B7F4FCE01CB960E948806B801CE01CE
:1012A000CB960E945F066FE271E00E945F06B60176
:1012B0000E94F5056AE872E00E945F060E9436010E
:1012C000CE01CB960E94F306CE018F5B9F4F0E940A
:1012D000F3068091DA02803108F4DFC088E191E002
:1012E0000E947A048091DA020E94390411E01625E6
:1012F0000091DA0281E291E00E947A0480E00E948B
:101300002F050093DA0260E0802F0E948704802F6F
:101310000E948C0000E02091DB0240E0112321F0CC
:1013200001E02091DB0241E06091DD0280E80E9453
:1013300002050E94F50481E00E942F05A8E5CA2E4F
:10134000A1E0DA2E111104C0FEE5CF2EF1E0DF2E70
:10135000A090DB02B090DC026FE271E0CE018F5B07
:101360009F4F0E94C206BE016F5B7F4FCE01CB969E
:101370000E948806B501CE01CB960E94F50560E477
:1013800071E00E945F06612F70E00E94290664E907
:1013900071E00E945F06B6010E945F060E9436015E
:1013A000CE01CB960E94F306CE018F5B9F4F0E9429
:1013B000F3060E946D05B701CE01CB960E94C206CE
:1013C0006FE971E0CE01CB960E947A0510E08111A1
:1013D000162DCE01CB960E94F30664EB71E011113D
:1013E00074C0B701CE01CB960E94C20660ED71E0D9
:1013F000CE01CB960E947A058111162DCE01CB9697
:101400000E94F306112309F44BC067EE71E0CE0190
:10141000895B9F4F0E94C20682E08093DA026BEBE9
:1014200071E0CE018F5B9F4F0E94C206BE016F5BD1
:101430007F4FCE01CB960E948806BE01695B7F4F2D
:10144000CE01CB960E94750660EF71E00E945F06A8
:101450000E943601CE01CB960E94F306CE018F5B2F
:101460009F4F0E94F306BE01695B7F4FCE01CB9672
:101470000E948806CE01CB960E943B05CE01CB96FA
:101480000E94F306CE01895B9F4F0E94F306E8E0BD
:101490007E2EC2CD8CE191E0E3CE8CE191E020CFB5
:1014A000B701CE01CB960E94C2066AEF71E0CE0171
:1014B000CB960E947A058111162DCE01CB960E9403
:1014C000F306112311F16FE072E0CE01895B9F4FAB
:1014D0000E94C20683E08093DA026BEB71E0CE01DA
:1014E0008F5B9F4F0E94C206BE016F5B7F4FCE0194
:1014F000CB960E948806BE01695B7F4FCE01CB96DA
:101500000E94750666EC71E0A1CFB701CE01CB96C3
:101510000E94C20666E172E0CE01CB960E947A0577
:101520008111162DCE01CB960E94F3066BE272E07C
:1015300011116DCF662051F08091DB029091DC0299
:1015400001969093DC028093DB0266CD72E0772EE9
:1015500063CD9C0166E0359527956A95E1F72230C9
:10156000310509F059CD9C0144E0359527954A9500
:10157000E1F7122F117055E0959587955A95E1F78F
:10158000049711F58091BD039091BE039093C4031D
:101590008093C3031092C6031092C50300E0E0904D
:1015A0009802F0909902802F90E097012450310921
:1015B0008217930758F489569D4FDC0114968C913D
:1015C0000E948C000F5FEBCF1260DCCF0E94CC003A
:1015D000292F3327F701E956FD4F408142171306A3
:1015E00031F42181992701E02817190609F000E05C
:1015F0008091BD039091BE039093C4038093C30375
:101600001092C6031092C503AEE58A2EA1E09A2E71
:10161000112351F0B8E58B2EB1E09B2E113021F053
:10162000FDE58F2EF1E09F2EB1E0CB22DD24EEE42C
:10163000AE2EE1E0BE2E011104C071E5A72E71E0CF
:10164000B72E6090DB027090DC026FE271E0CE0199
:10165000CB960E94C206BE01655C7F4FCE0101960B
:101660000E948806B301CE0101960E94F50562E74B
:1016700071E00E945F06B5010E945F0660E471E0C0
:101680000E945F06B6010E94290664E971E00E948B
:101690005F06B4010E945F060E943601CE010196EA
:1016A0000E94F306CE01CB960E94F3068090DB02E7
:1016B0009090DC0265E5C62E61E0D62E112321F064
:1016C00051E5C52E51E0D52E62E372E0CE01CB96F6
:1016D0000E94C206BE01655C7F4FCE0101960E944A
:1016E0008806B601CE0101960E945F0662E771E0AE
:1016F0000E945F06B5010E945F066FE271E00E94E2
:101700005F06B4010E94F50563E871E00E945F0680
:101710000E943601CE0101960E94F306CE01CB96BF
:101720000E94F3068091DA02803198F088E191E01E
:101730000E947A048091DA020E9439040E946D05A9
:1017400011110AC043E0742E011166CC24E0722E00
:1017500063CC8CE191E0ECCF97E0792E113009F069
:101760005BCC35E0732E011157CC86E0782E54CC3B
:101770004F925F926F927F928F929F92AF92BF92A1
:10178000EF92FF920F931F93CF93DF93CDB7DEB706
:10179000C354D1090FB6F894DEBF0FBECDBFE82EFB
:1017A00004E010E041E061E08E2D0E94FB060E9403
:1017B00033034B015C012B013C0188EB480E8BE0AD
:1017C000581E611C711C0E94330364157505860543
:1017D0009705A8F188E492E00E947A0489288A2873
:1017E0008B2801F3101611065CF40150110964EF07
:1017F00071E080E090E00E94000340E060E0D4CF20
:1018000001151105A1F783E592E00E947A04F12CFD
:101810008F2DCD5BDF4F0FB6F894DEBF0FBECDBF6F
:10182000DF91CF911F910F91FF90EF90BF90AF90FC
:101830009F908F907F906F905F904F9008950E943F
:101840003F0380911C03882331F060911D03CE017A
:1018500001960E940C04F0909702FF2009F4B3CF88
:101860000E94AC078330A1F2882309F4B3CF8DE343
:1018700092E0B2CF1F920F920FB60F9211242F93C6
:101880003F934F935F936F937F938F939F93AF9308
:10189000BF93EF93FF938EE193E00E949001FF913D
:1018A000EF91BF91AF919F918F917F916F915F91D8
:1018B0004F913F912F910F900FBE0F901F90189551
:1018C0001F920F920FB60F9211242F938F939F9315
:1018D000EF93FF93E0912E03F0912F038081E0912D
:1018E0003403F091350382FD1BC090818091370352
:1018F0008F5F8F7320913803821741F0E091370397
:10190000F0E0E25EFC4F958F80933703FF91EF91FB
:101910009F918F912F910F900FBE0F901F90189550
:101920008081F4CF1F920F920FB60F9211242F9344
:101930003F938F939F93AF93BF9380918F0290912A
:101940009002A0919102B091920230918E0223E018
:10195000230F2D3758F50196A11DB11D20938E023E
:1019600080938F0290939002A0939102B093920281
:101970008091930290919402A0919502B091960269
:101980000196A11DB11D8093930290939402A093A0
:101990009502B0939602BF91AF919F918F913F9125
:1019A0002F910F900FBE0F901F90189526E8230FD0
:1019B0000296A11DB11DD2CFEEE1F3E01382128297
:1019C00088EE93E0A0E0B0E084839583A683B7839C
:1019D0008AE091E09183808385EC90E0958784870D
:1019E00084EC90E09787868780EC90E0918B808BE9
:1019F00081EC90E0938B828B82EC90E0958B848BD2
:101A000086EC90E0978B868B118E128E138E148E3F
:101A1000EBEBF3E081E090E8918380831382128204
:101A200015821482168217821186108613861286FA
:101A30000895CF93DF93CDB7DEB7CF54D1090FB65A
:101A4000F894DEBF0FBECDBF789484B5826084BDAC
:101A500084B5816084BD85B5826085BD85B58160B2
:101A600085BD80916E00816080936E001092810030
:101A700080918100826080938100809181008160EB
:101A800080938100809180008160809380008091AC
:101A9000B10084608093B1008091B0008160809338
:101AA000B00080917A00846080937A0080917A00FF
:101AB000826080937A0080917A00816080937A00BE
:101AC00080917A00806880937A001092C100E09142
:101AD0002E03F0912F0382E08083E0912A03F0919E
:101AE0002B031082E0912C03F0912D038FEC808367
:101AF00010923603E0913203F091330386E0808345
:101B0000E0913003F0913103808180618083E09126
:101B10003003F0913103808188608083E09130034D
:101B2000F0913103808180688083E0913003F091EF
:101B3000310380818F7D80836FE572E0CE018C5B05
:101B40009F4F0E94C206BE016C5B7F4FCE01019683
:101B50000E94880661E070E0CE0101960E9429068D
:101B60000E943601CE0101960E94F306CE018C5BE5
:101B70009F4F0E94F30660E085E00E949F0262E0B2
:101B800086E00E949F02E2EEF2E08AE3DF011D920E
:101B90008A95E9F70E946D0510921C0310921D03AF
:101BA0008091BD039091BE039093C4038093C303BF
:101BB0001092C6031092C50381E090E09093DE027C
:101BC0008093DD029093DC028093DB0200E010E062
:101BD0008EE193E00E947001892B09F50E943F037A
:101BE00080911C03882331F060911D03CE01019682
:101BF0000E940C0480919702882351F30E94AC0745
:101C0000883031F764EF71E080E090E00E940003DB
:101C10008091DA020E94B80B0E946D05D9CF6EE95F
:101C200071E0CE01865B9F4F0E94C2060E94DA03DC
:101C300097FD0DC089831A8241E050E0BE016F5FBD
:101C40007F4FCE01865B9F4F0E94B705EFCF609616
:101C50008EAD9FAD6097009709F4B6C001972C96A2
:101C60002EAD3FAD2C97F901E80FF91F2115310575
:101C700021F41092DF02EFEDF2E040814D3041F4AB
:101C800060969FAF8EAF6097820F931FFC0110820A
:101C900060968EAD9FAD6097892B09F495C06BEB74
:101CA00071E0CE018C5B9F4F0E94C206BE016C5B4F
:101CB0007F4FCE0101960E948806BE01665B7F4F72
:101CC000CE0101960E94750669E872E00E945F06E7
:101CD0000E943601CE0101960E94F306CE018C5B74
:101CE0009F4F0E94F3068EE193E00E947001892BC2
:101CF00059F46AE070E080E090E00E940003F3CFC6
:101D00008EE193E00E944E010E94A803FC0197FD22
:101D10006FC08D32910519F0C0970A9788F7C12CD2
:101D2000D12C7601B12CE130F105D9F0ED32F1057D
:101D300009F45BC0CF01C0970A9798F4AAE0B0E01D
:101D4000A70196010E94340F6F01FF0FEE08FF08F4
:101D5000C60ED71EE81EF91EF0E3CF1AD108E1081F
:101D6000F1088EE193E00E944E010E94A803FC015D
:101D7000C0970A97C0F2E130F105A9F2BB2041F00B
:101D8000F094E094D094C094C11CD11CE11CF11CCF
:101D90008FE08C1588F18CE191E00E947A048C2D03
:101DA0000E943904BE01665B7F4FCE0101960E94FE
:101DB0008806CE0101960E943B05CE0101960E9445
:101DC000F3068C2D0E94B80BCE01865B9F4F0E94BC
:101DD000F3060115110509F4FBCE0E947C0188234E
:101DE00009F4F6CE0E940000F3CEBB24B394B9CF21
:101DF000C12CD12C7601CCCF88E191E0CECFBB278E
:101E00004A3031F4992322F4BDE2909581959F4F99
:101E10000C940B0FBB27FB015527AA27880F991F8E
:101E2000AA1FA41710F0A41B83955051B9F7A05D09
:101E3000AA3308F0A95DA193009779F7B111B19386
:101E40001192CB010C94240FDC01FC01672F7191DE
:101E50007723E1F7329704C07C916D937083629190
:101E6000AE17BF07C8F308950E94760FA59F900D87
:101E7000B49F900DA49F800D911D112408952F9261
:101E80003F924F925F926F927F928F929F92AF920A
:101E9000BF92CF92DF92EF92FF920F931F93CF9357
:101EA000DF93CDB7DEB7CA1BDB0B0FB6F894DEBFEE
:101EB0000FBECDBF09942A88398848885F846E8414
:101EC0007D848C849B84AA84B984C884DF80EE805E
:101ED000FD800C811B81AA81B981CE0FD11D0FB667
:101EE000F894DEBF0FBECDBFED010895A29FB001F3
:101EF000B39FC001A39F700D811D1124911DB29F3E
:101F0000700D811D1124911D0895EE0FFF1F059086
:101F1000F491E02D09940F931F93CF93DF938230B8
:101F2000910510F482E090E0E091C903F091CA03BA
:101F300030E020E0B0E0A0E0309799F421153105C1
:101F400009F44AC0281B390B24303105D8F58A81A1
:101F50009B816115710589F1FB0193838283FE01E9
:101F600011C0408151810281138148175907E0F067
:101F70004817590799F4109761F012960C9312972D
:101F800013961C933296CF01DF91CF911F910F9141
:101F900008950093C9031093CA03F4CF21153105A6
:101FA00051F04217530738F0A901DB019A01BD0136
:101FB000DF01F801C1CFEF01F9CF9093CA038093FD
:101FC000C903CDCFFE01E20FF31F819391932250FD
:101FD000310939832883D7CF2091C7033091C803B3
:101FE000232B41F420910201309103013093C80367
:101FF0002093C70320910001309101012115310583
:1020000041F42DB73EB74091040150910501241BC6
:10201000350BE091C703F091C803E217F307A0F472
:102020002E1B3F0B2817390778F0AC014E5F5F4F2E
:102030002417350748F04E0F5F1F5093C803409395
:10204000C703819391939FCFF0E0E0E09CCFCF93C3
:10205000DF930097E9F0FC01329713821282A0917E
:10206000C903B091CA03ED0130E020E01097A1F45C
:1020700020813181820F931F2091C7033091C803C3
:102080002817390709F061C0F093C803E093C7032C
:10209000DF91CF910895EA01CE17DF07E8F54A8175
:1020A0005B819E0141155105B1F7E901FB83EA838C
:1020B00049915991C40FD51FEC17FD0761F4808138
:1020C00091810296840F951FE9019983888382810B
:1020D00093819B838A83F0E0E0E012968D919C913E
:1020E00013970097B9F52D913C911197CD01029668
:1020F000820F931F2091C7033091C8032817390717
:1021000039F6309751F51092CA031092C903B09373
:10211000C803A093C703BCCFD383C283408151813E
:10212000840F951FC817D90761F44E5F5F4F8881F0
:102130009981480F591F518340838A819B819383E2
:1021400082832115310509F0B0CFF093CA03E093E3
:10215000C9039ECFFD01DC01C0CF13821282D7CF0D
:10216000B0E0A0E0E6EBF0E10C94410F8C010097A9
:1021700051F4CB010E948B0F8C01C801CDB7DEB7A3
:10218000E0E10C945D0FFC01E60FF71F9C0122506B
:102190003109E217F30708F49DC0D901CD91DC9114
:1021A0001197C617D70798F0C530D10530F3CE0187
:1021B00004978617970708F3C61BD70B2297C1937E
:1021C000D1936D937C93CF010E942710D6CF5B01F2
:1021D000AC1ABD0A4C018C0E9D1EA091C903B09192
:1021E000CA03512C412CF12CE12C109731F5809130
:1021F000C7039091C8038815990509F05CC046167D
:10220000570608F058C08091000190910101009795
:1022100041F48DB79EB74091040150910501841B94
:10222000950BE817F90708F055C0F093C803E09341
:10223000C703F90171836083A0CF8D919C911197A1
:1022400012966C90129713967C901397A815B90567
:1022500059F56C0142E0C40ED11CCA14DB0420F114
:10226000AC014A195B09DA011296159780F0628277
:10227000738251834083D9016D937C93E114F104FF
:1022800071F0D7011396FC93EE93129776CF2296B6
:102290008C0F9D1FF90191838083F301EFCFF093A1
:1022A000CA03E093C90369CF4816590608F42C0104
:1022B0007D01D3019ACFCB010E948B0F7C01009747
:1022C00049F0AE01B8010E946D11C8010E942710AB
:1022D000870153CF10E000E050CFFB01DC0102C0CA
:1022E00001900D9241505040D8F70895FB01DC0158
:1022F0008D91019080190110D9F3990B0895FB017C
:10230000DC0101900D920020E1F70895F894FFCFD1
:102310000000CB03800000000000B20109013F0172
:10232000FF0170014E0162012030780020307830CA
:10233000000A53454E443A00206E2873293D002080
:102340006E2872293D002041534349493A2700270E
:1023500020502F463A002028496E666F29004F4BC7
:102360000052454A0052520052454A2900455252F5
:1023700029000A524543563A00203C64726F703E71
:102380000027204352433A000A3E3E20726563769E
:102390003A27002066726F6D000A3E3E2072657318
:1023A000703A200020285375706572202D2000722D
:1023B0006F7574652048657979792120746F2030B4
:1023C00078303300486579797921000A3E3E2073E0
:1023D000656E643A27002720746F20307830330010
:1023E000726F7574652068454C4C6F6F6F21207457
:1023F0006F20307830320068454C4C6F6F6F210091
:102400002720746F203078303200726F7574652029
:1024100042797979652120746F2030783033004219
:10242000797979652100726F75746520536565202F
:10243000752120746F203078303200536565207527
:1024400021000A3E3E20726563763A2000203C520D
:10245000454A2F4552523E00203C74696D656F75A8
:10246000743E00203C63616E63656C65643E000AE7
:102470005072696D61727920446576696365202DBB
:1024800020496E6974696E672E2E2E0A4D7920419F
:0E2490006464726573733A20002720746F0035
:00000001FF
