:100000000C9462000C948A000C948A000C948A0070
:100010000C948A000C948A000C948A000C948A0038
:100020000C948A000C948A000C948A000C948A0028
:100030000C948A000C948A000C948A000C948A0018
:100040000C941D0C0C948A000C94EB0B0C94C50BB7
:100050000C948A000C948A000C948A000C948A00F8
:100060000C948A000C948A000000000024002700F1
:100070002A0000000000250028002B0000000000DE
:1000800023002600290004040404040404040202DA
:100090000202020203030303030301020408102007
:1000A0004080010204081020010204081020000012
:1000B0000008000201000003040700000000000027
:1000C0000000670C11241FBECFEFD8E0DEBFCDBF0C
:1000D00023E0AEE6B2E001C01D92AA3AB207E1F712
:1000E00012E0A0E0B1E0EEEDF0E202C005900D926A
:1000F000AE36B107D9F710E0C2E6D0E004C02197D0
:10010000FE010E946C0EC136D107C9F70E94A40CF3
:100110000C946D100C9400002091A4033091A50361
:100120002F5F3F4F3093A5032093A4039091A0032A
:100130009923C1F090E09C01359527952575880F8E
:10014000991F8A7A822B282F30E0C90195958795CF
:10015000959587958373220F331F220F331F2C7CB5
:10016000822B82952091A2033091A303A9015827E5
:10017000CA0140919A0350919B0328E0BC01880F6B
:10018000991F77FF02C0842795272150B9F79093D4
:10019000A3038093A20308958091A2039091A303E7
:1001A0002091A103222371F19C0136952795257595
:1001B0003575880F991F8A7A9A7A822B932B9C0126
:1001C000369527953695279523733373880F991F96
:1001D000880F991F8C7C9C7C282B392BC901E4E06B
:1001E00096958795EA95E1F78F709F70F4E0220F5E
:1001F000331FFA95E1F7207F307F822B932B9827CE
:100200008927982720919E0330919F038227932767
:100210000895AF92BF92CF92DF92EF92FF920F9329
:100220001F93CF93DF936C017B018B01040F151F8C
:10023000EB015E01AE18BF08C017D10759F06991F4
:10024000D601ED91FC910190F081E02DC601099558
:10025000892B79F7C501DF91CF911F910F91FF9005
:10026000EF90DF90CF90BF90AF900895FC01448154
:100270005581608171818DEF92E00C940901FC0140
:10028000538D448D252F30E0842F90E0821B930BFB
:10029000541710F0CF96089501970895FC01918DA1
:1002A000828D981761F0A28DAE0FBF2FB11D5D96A4
:1002B0008C91928D9F5F9F73928F90E008958FEF46
:1002C0009FEF0895FC01918D828D981731F0828DFA
:1002D000E80FF11D858D90E008958FEF9FEF089551
:1002E000FC01918D228D892F90E0805C9F4F821BB5
:1002F00091098F73992708958DEF92E00E94700104
:1003000021E0892B09F420E0822F089580E090E01D
:10031000892B29F00E947C0181110C940000089522
:10032000FC01A48DA80FB92FB11DA35ABF4F2C916A
:10033000848D90E001968F739927848FA689B78961
:100340002C93A089B1898C91837080648C93938D58
:10035000848D981306C00288F389E02D80818F7DFB
:1003600080830895EF92FF920F931F93CF93DF93B3
:10037000EC0181E0888F9B8D8C8D98131AC0E889E1
:10038000F989808185FF15C09FB7F894EE89FF89B0
:100390006083E889F98980818370806480839FBF4E
:1003A00081E090E0DF91CF911F910F91FF90EF904E
:1003B0000895F62E0B8D10E00F5F1F4F0F7311275E
:1003C000E02E8C8D8E110CC00FB607FCFACFE88999
:1003D000F989808185FFF5CFCE010E949001F1CF90
:1003E000EB8DEC0FFD2FF11DE35AFF4FF0829FB70D
:1003F000F8940B8FEA89FB8980818062CFCFCF93FD
:10040000DF93EC01888D8823B9F0AA89BB89E8893C
:10041000F9898C9185FD03C0808186FD0DC00FB6E2
:1004200007FCF7CF8C9185FFF2CF808185FFEDCF60
:10043000CE010E949001E9CFDF91CF9108958330E2
:1004400081F028F4813099F08230A9F00895873046
:10045000A9F08830C9F08430B1F4809180008F7D9C
:1004600003C0809180008F7780938000089584B5C9
:100470008F7784BD089584B58F7DFBCF8091B000C8
:100480008F778093B00008958091B0008F7DF9CF71
:10049000CF93DF93282F30E0F901E255FF4F84918D
:1004A000F901E656FF4FD491F901EA57FF4FC49185
:1004B000CC23A1F081110E941F02EC2FF0E0EE0F7F
:1004C000FF1FE458FF4FA591B491EC91ED2381E01B
:1004D00090E009F480E0DF91CF91089580E090E012
:1004E000FACF1F93CF93DF93282F30E0F901E25525
:1004F000FF4F8491F901E656FF4FD491F901EA5775
:10050000FF4FC491CC23A9F0162F81110E941F0226
:10051000EC2FF0E0EE0FFF1FEE58FF4FA591B491C6
:100520008FB7F894EC91111108C0D095DE23DC93BD
:100530008FBFDF91CF911F910895DE2BF8CFCF931E
:10054000DF9390E0FC01E656FF4F24918A579F4FBE
:10055000FC0184918823C9F090E0880F991FFC0169
:10056000E859FF4FA591B491FC01EE58FF4FC5919A
:10057000D49161110DC09FB7F8948C91209582237E
:100580008C938881282328839FBFDF91CF91089582
:10059000623051F49FB7F8943C91822F8095832369
:1005A0008C93E8812E2BEFCF8FB7F894EC912E2B04
:1005B0002C938FBFEACF3FB7F89480916F02909150
:1005C0007002A0917102B091720226B5A89B05C07D
:1005D0002F3F19F00196A11DB11D3FBFBA2FA92FC2
:1005E000982F8827BC01CD01620F711D811D911DBF
:1005F00042E0660F771F881F991F4A95D1F708952B
:100600008F929F92AF92BF92CF92DF92EF92FF9222
:100610006B017C010E94DB024B015C01C114D1041F
:10062000E104F104B9F00E94DB02681979098A0932
:100630009B09683E73408105910580F321E0C21A51
:10064000D108E108F10888EE880E83E0981EA11C0D
:10065000B11CE4CFFF90EF90DF90CF90BF90AF90B0
:100660009F908F900895CF92DF92EF92FF920F9319
:100670001F93CF938FB7F894C090F702D090F802F1
:10068000E090F902F090FA028FBF84E6C80ED11C08
:10069000E11CF11C0BE811E02FB7F8948091F702F0
:1006A0009091F802A091F902B091FA022FBF8C1537
:1006B0009D05AE05BF0508F048C085E00E944802D0
:1006C000892B09F43EC086E00E944802892BC9F5B7
:1006D00066E070E080E090E00E94000307E010E038
:1006E000C0E0C12CD12C7601C39485E00E94480261
:1006F000892B81F486E00E944802892B59F0D701AA
:10070000C601002E04C0880F991FAA1FBB1F0A94A0
:10071000D2F7C82B65E070E080E090E00E94000313
:100720000150110910F781E08093FB02C093FC0295
:100730009C2FCF911F910F91FF90EF90DF90CF9062
:100740000895C8010197F1F7A7CF1092FB0210920C
:10075000FC0280E090E0EDCFAC01209173022223F7
:1007600051F083E4E3E7F2E0DA0101900D928A951B
:10077000E1F7CA0108958091740290917502009783
:1007800011F46E3771F7FC01ED58FD4F638301964C
:1007900090937502809374028230910538F021E0C5
:1007A0006E3721F08034910508F420E02093730225
:1007B000E0CFCF93DF93CDB7DEB7A1970FB6F89414
:1007C000DEBF0FBECDBF90E0B0E0A0E019A2FE01F9
:1007D000B196AC01BD014F7055276627772724E0FD
:1007E000B695A795979587952A95D1F74A3004F540
:1007F000405D42930097A105B10559F790E080E074
:10080000309769F0DF010D900020E9F71197AD01F5
:100810004E1B5F0BBF018DEF92E00E940901A19674
:100820000FB6F894DEBF0FBECDBFDF91CF91089514
:10083000495CDFCFFC0101900020E9F73197AF015F
:10084000481B590BBC018DEF92E00C940901CF922B
:10085000DF92EF92FF920F931F93CF93DF93F82EC7
:10086000E62E61E085E00E949F0261E086E00E9442
:100870009F026FEF85E00E94710260E086E00E94B7
:10088000710265E070E080E090E00E940003C7E044
:10089000D0E0CF2CD12C86010C2E02C015950795E7
:1008A0000A94E2F7B801609570956170772785E04A
:1008B0000E947102B8016170772786E00E94710280
:1008C00065E070E080E090E00E940003219718F757
:1008D00060E085E00E9471026FEF86E00E94710285
:1008E00065E070E080E090E00E940003EE2041F0BF
:1008F00060E085E00E949F0262E086E00E949F0225
:100900008FE08F1578F08DE191E00E941A048F2D11
:10091000DF91CF911F910F91FF90EF90DF90CF90DB
:100920000C94D90389E191E0F0CFCF930E94CC00E1
:10093000C82F60E0892F0E94270460E08C2FCF91A0
:100940000C9427040F93CF93C82F811119C0822FC5
:10095000C22FC17021FDC26082FDC4604111C86018
:10096000862F60FDC06181FDC06282FDC06460E0D1
:100970008C2F0E9427048C2FCF910F910C948C0008
:100980008038A9F7822F20FDC1E881FDC26082FD79
:10099000C4604111C860002351F3C061E8CFEAE9A7
:1009A000F3E0228133813187208713861286682FF6
:1009B0008EE70C942704CF93DF93EDEBF2E02AE36C
:1009C000DF011D922A95E9F7EC014C815D81342FFE
:1009D000252F4A33510510F03AE320E03093BB0253
:1009E0002093BC02ADEBB2E030E020E042175307A9
:1009F00089F0EC01E881F981309749F41092BA024C
:100A0000EAEBF2E060816D932F5F3F4FEFCFE20F93
:100A1000F31FF8CFDF91CF910895E3E7F2E0108262
:100A200012821182E6E7F2E080E4DF011D928A95EE
:100A3000E9F70895FC0124813581232B39F421E065
:100A4000FB018081882349F020E007C080819181EB
:100A50000E945D1021E0892BB9F7822F08950F9332
:100A60001F93CF93DF93EC0188819981009759F010
:100A70002A813B812617370730F081E0DF91CF9143
:100A80001F910F9108958B016F5F7F4F0E94970F09
:100A9000009759F0998388831B830A832C813D81B9
:100AA000232B59F7FC011082E8CF80E0E7CFEF92CB
:100AB000FF920F931F93CF93DF936115710541F45C
:100AC00080E0DF91CF911F910F91FF90EF900895FB
:100AD00041155105B1F07B01EC010C811D81040F22
:100AE000151FB8010E942F05882351F328813981F1
:100AF0008C819D81B701820F931F0E9466101D8318
:100B00000C8381E0DECFCF93DF93EC018881998164
:100B1000009711F00E940E0F198218821D821C820C
:100B20001B821A82DF91CF910895EF92FF920F936B
:100B30001F93CF93DF9300D000D000D01F92CDB78A
:100B4000DEB77C01CB014AE08E010F5F1F4FB80179
:100B50000E940B0EF80101900020E9F73197AF01D8
:100B6000401B510BB801C7010E945705811103C0FA
:100B7000C7010E948305C70127960FB6F894DEBF10
:100B80000FBECDBFDF91CF911F910F91FF90EF90DE
:100B90000895EF92FF920F931F93CF93DF93CDB7FA
:100BA000DEB728970FB6F894DEBF0FBECDBF7C012D
:100BB000CB014AE08E010F5F1F4FB8010E94000E6B
:100BC000F80101900020E9F73197AF01401B510B6C
:100BD000B801C7010E945705811103C0C7010E94D7
:100BE0008305C70128960FB6F894DEBF0FBECDBFB0
:100BF000DF91CF911F910F91FF90EF900895CF93C8
:100C0000DF93EC01FB0101900020E9F73197AF0180
:100C1000461B570B0E945705811103C0CE010E944D
:100C20008305CE01DF91CF910895CF93DF93EC013F
:100C3000FB0144815581608171810E9457058111BA
:100C400003C0CE010E948305CE01DF91CF910895AC
:100C5000EF92FF920F931F93CF93DF93EC011982D2
:100C600018821B821A821D821C828617970719F12F
:100C7000FB010081118101151105E9F0E480F58087
:100C8000B7010E942F05811109C0CE01DF91CF91DC
:100C90001F910F91FF90EF900C948305FD82EC82E1
:100CA000B80188819981DF91CF911F910F91FF90B9
:100CB000EF900C946610DF91CF911F910F91FF90F0
:100CC000EF900895EF92FF920F931F93CF93DF93CE
:100CD000EC017B01198218821B821A821D821C8200
:100CE000FB0101900020E9F731978F01061B170BDC
:100CF000B8010E942F05811109C0CE01DF91CF916B
:100D00001F910F91FF90EF900C9483051D830C832E
:100D1000B70188819981DF91CF911F910F91FF9049
:100D2000EF900C946610FC0180819181009711F086
:100D30000C940E0F0895EF92FF920F931F93CF9391
:100D4000DF93CDB7DEB72C970FB6F894DEBF0FBE9A
:100D5000CDBF882309F441C081E090E09093B902AF
:100D60008093B80282E291E00E941A0480E00E941F
:100D7000CF0481E08093000160E00E94270481E0BD
:100D80000E948C0000E02091B60241E06091B80220
:100D900080E00E94A204E090BB02F090BC02E1144B
:100DA000F10419F10DEB12E098012D5B3240C701FF
:100DB0004BE3E416F10410F08AE390E028173907BA
:100DC000D8F460E0F80181918F010E942704F801B6
:100DD000319780810E948C00E7CF662319F28091C1
:100DE000B8029091B9020196B9CF60E080E00E940C
:100DF000270480E00E948C000E94950481E00E94FC
:100E0000CF040091B6021091B702E090B802F090C2
:100E1000B90269E271E0CE0107960E946206BE0146
:100E2000695F7F4FCE0101960E942806B701CE016F
:100E300001960E94950560E371E00E94FF05B801EC
:100E40000E94950567E371E00E94FF056DEB72E07B
:100E50000E94FF0560E471E00E94FF0561E070E020
:100E60000E94C90567E471E00E94FF050E943601F7
:100E7000CE0101960E949306CE0107960E9493062A
:100E80002C960FB6F894DEBF0FBECDBFDF91CF9189
:100E90001F910F91FF90EF9008956F927F928F9224
:100EA0009F92AF92BF92CF92DF92EF92FF920F93F9
:100EB0001F93CF93DF93CDB7DEB7CE55D1090FB6D1
:100EC000F894DEBF0FBECDBF81E090E09093B702F3
:100ED0008093B6026090730210E06620B1F1009139
:100EE0007802C02ED12C73E0D594C7947A95E1F79F
:100EF00083E691E00E941A04F12C20917402309153
:100F000075020F2D10E002171307A0F40D581D4FA6
:100F1000D80113968C91803150F089E191E00E94C4
:100F20001A04F80183810E94D903F394E6CF8DE17E
:100F300091E0F5CF109177021330F1F08AE691E05D
:100F40000E941A040E940D0519E0812FC25ADF4F3A
:100F50000FB6F894DEBF0FBECDBFDF91CF911F91CA
:100F60000F91FF90EF90DF90CF90BF90AF909F9048
:100F70008F907F906F9008958091780290E0AC01FF
:100F8000440F452F441F550B452B09F0F4C2CE01E9
:100F900001967C018AE3D7011D928A95E9F740E02A
:100FA00026503109842F90E08217930758F4F701F7
:100FB000E80FF91F8D589D4FDC0116968C918083A8
:100FC0004F5FF0CF80919C0390919D039093A3037A
:100FD0008093A2031092A5031092A403B12C009158
:100FE0007402109175028B2D90E098012450310904
:100FF0008217930740F48D589D4FFC0184810E9415
:101000008C00B394ECCF0E94CC00292F3327F80139
:10101000ED58FD4F40814217130639F4218199277D
:10102000772473942817190609F0712C80919C037A
:1010300090919D039093A3038093A2031092A50324
:101040001092A4038601017011279FE4C92E91E03C
:10105000D92E711004C082E5C82E81E0D82EA09050
:10106000B602B090B7028090B8029090B90269E2DF
:1010700071E0CE018F5B9F4F0E946206BE016F5BE5
:101080007F4FCE01CB960E942806B401CE01CB96AD
:101090000E94950560E371E00E94FF05B5010E9482
:1010A000950567E371E00E94FF05B7010E94FF0507
:1010B00062E771E00E94FF05B6010E94FF0561E44E
:1010C00071E00E94FF05B8010E94C90567E471E064
:1010D0000E94FF050E943601CE01CB960E94930626
:1010E000CE018F5B9F4F0E9493060091B602109134
:1010F000B702A090B802B090B902B701CE01CB966A
:101100000E94620669E771E0CE01895B9F4F0E94F1
:101110006206BE01695B7F4FCE018F5B9F4F0E94CD
:101120002806BE01655C7F4FCE018F5B9F4F0E94FA
:10113000150662E771E00E94FF05B6010E94FF05F7
:1011400069E271E00E94FF05B5010E94950560E328
:1011500071E00E94FF05B8010E94950564E871E006
:101160000E94FF050E943601CE018F5B9F4F0E94B7
:101170009306CE01895B9F4F0E949306CE01CB96CA
:101180000E94930680910001803108F45FC189E1DB
:1011900091E00E941A04809100010E94D903C0903E
:1011A000B602D090B70206E511E0711002C002E568
:1011B00011E06AE871E0CE018F5B9F4F0E946206EA
:1011C000BE016F5B7F4FCE01CB960E942806B8010F
:1011D000CE01CB960E94FF0560E371E00E94FF05FF
:1011E000B6010E94950565E971E00E94FF050E9425
:1011F0003601CE01CB960E949306CE018F5B9F4FA6
:101200000E94930680910001803108F422C189E197
:1012100091E00E941A04809100010E94D903B70155
:10122000CE01895B9F4F0E94620669E971E0CE01A1
:10123000895B9F4F0E941A0581110EC1B701CE0133
:10124000835B9F4F0E9462066DE971E0CE01835B74
:101250009F4F0E941A05812C912C811100C1B7016A
:10126000CE018D5A9F4F0E94620665EB71E0CE0160
:101270008D5A9F4F0E941A05962C812C8111EFC028
:10128000B701CE01875A9F4F0E9462066CEB71E056
:10129000CE01875A9F4F0E941A0511E0811110E07C
:1012A000862C962C81E0D72CD8260091000182E272
:1012B00091E00E941A0480E00E94CF040093000194
:1012C00060E0802F0E942704802F0E948C0000E0A5
:1012D000D11001E02091B602412F6091B80280E860
:1012E0000E94A2040E94950481E00E94CF04D110C4
:1012F000B8C00FE5C02E01E0D02EA090B602B0908D
:10130000B70260E371E0CE018F5B9F4F0E946206DF
:10131000BE016F5B7F4FCE01CB960E942806B501C0
:10132000CE01CB960E94950561E471E00E94FF0515
:10133000612F70E00E94C90563EC71E00E94FF0517
:10134000B6010E94FF050E943601CE01CB960E9495
:101350009306CE018F5B9F4F0E949306882029F051
:10136000CE01875A9F4F0E949306992029F0CE0103
:101370008D5A9F4F0E949306662029F0CE01835B11
:101380009F4F0E949306CE01895B9F4F0E94930658
:101390000E940D05B701CE01CB960E94620669E955
:1013A00071E0CE01CB960E941A0510E08111172D35
:1013B000CE01CB960E949306112309F457C06EEC20
:1013C00071E0CE01895B9F4F0E94620661ED71E082
:1013D000CE018F5B9F4F0E946206BE016F5B7F4F05
:1013E000CE01CB960E942806BE01695B7F4FCE01DD
:1013F000CB960E9415066CED71E00E94FF050E94DD
:101400003601CE01CB960E949306CE018F5B9F4F93
:101410000E949306BE01695B7F4FCE01CB960E946E
:101420002806CE01CB960E94DB04CE01CB960E940B
:10143000930664E670E080E090E00E940003CE0135
:10144000895B9F4F0E94930618E07FCD8DE191E06C
:10145000A0CE8DE191E0DDCE812C912C612C10E0AD
:1014600021CFB9E5CB2EB1E0DB2E47CFB701CE01BE
:10147000CB960E9462066DE971E0CE01CB960E9488
:101480001A058111172DCE01CB960E9493061123C8
:10149000D9F169EE71E0CE01895B9F4F0E9462062F
:1014A00061ED71E0CE018F5B9F4F0E946206BE012D
:1014B0006F5B7F4FCE01CB960E942806BE01695B11
:1014C0007F4FCE01CB960E9415066CED71E00E9415
:1014D000FF050E943601CE01CB960E949306CE01F5
:1014E0008F5B9F4F0E949306BE01695B7F4FCE01C9
:1014F000CB960E942806CE01CB960E94DB04CE013B
:10150000CB960E9493069BCFB701CE01CB960E944B
:10151000620665EB71E0CE01CB960E941A0581113F
:10152000172DCE01CB960E9493061111B2CFB701B1
:10153000CE01CB960E9462066CEB71E0CE01CB9699
:101540000E941A058111172DCE01CB960E94930699
:1015500060E072E011119FCF12E0772009F4F5CC22
:101560008091B6029091B70201969093B702809352
:10157000B60211E0EACC9C01A6E035952795AA9524
:10158000E1F72230310509F0E0CC9C01E4E035952B
:101590002795EA95E1F7022F0170F5E0959587957B
:1015A000FA95E1F7049711F580919C0390919D03C2
:1015B0009093A3038093A2031092A5031092A40317
:1015C000B12CE0907402F09075028B2D90E09701A1
:1015D000245031098217930758F48D589D4FDC0130
:1015E00014968C910E948C00B394EBCF0260DCCFF8
:1015F0000E94CC00292F3327F701ED58FD4F408181
:101600004217130639F421819927772473942817F8
:10161000190609F0712C80919C0390919D03909381
:10162000A3038093A2031092A5031092A4035FE585
:10163000A52E51E0B52E002351F069E5A62E61E0FC
:10164000B62E013021F04EE5A42E41E0B42EB1E0DB
:10165000CB22DD243FE4E32E31E0F32E711004C0F1
:1016600022E5E22E21E0F22E8090B6029090B702A1
:1016700060E371E0CE01CB960E946206BE01655C1C
:101680007F4FCE0101960E942806B401CE0101963B
:101690000E94950563E771E00E94FF05B7010E9473
:1016A000FF0561E471E00E94FF05B6010E94C905D3
:1016B00063EC71E00E94FF05B5010E94FF050E94E6
:1016C0003601CE0101960E949306CE01CB960E9470
:1016D0009306A090B602B090B70296E5C92E91E0AD
:1016E000D92E002321F082E5C82E81E0D82E65E1B5
:1016F00072E0CE01CB960E946206BE01655C7F4F10
:10170000CE0101960E942806B601CE0101960E94E4
:10171000FF0563E771E00E94FF05B7010E94FF0526
:1017200060E371E00E94FF05B5010E94950564E841
:1017300071E00E94FF050E943601CE0101960E94D1
:101740009306CE01CB960E949306809100018031D2
:1017500080F089E191E00E941A04809100010E94CA
:10176000D9030E940D05011107C07110EECB14E0E2
:10177000ECCB8DE191E0EFCF17E0013009F0E5CB44
:1017800015E07110E2CB16E0E0CB1F920F920FB67E
:101790000F9211242F933F934F935F936F937F93F7
:1017A0008F939F93AF93BF93EF93FF938DEF92E04F
:1017B0000E949001FF91EF91BF91AF919F918F9106
:1017C0007F916F915F914F913F912F910F900FBE3D
:1017D0000F901F9018951F920F920FB60F92112421
:1017E0002F938F939F93EF93FF93E0910D03F091CD
:1017F0000E038081E0911303F091140382FD1BC05E
:101800009081809116038F5F8F7320911703821749
:1018100041F0E0911603F0E0E350FD4F958F809387
:101820001603FF91EF919F918F912F910F900FBE13
:101830000F901F9018958081F4CF1F920F920FB6D2
:101840000F9211242F933F938F939F93AF93BF9346
:101850008091F7029091F802A091F902B091FA02FA
:1018600030916E0223E0230F2D3758F50196A11D0C
:10187000B11D20936E028093F7029093F802A0931B
:10188000F902B093FA0280916F0290917002A091D8
:101890007102B09172020196A11DB11D80936F0279
:1018A00090937002A0937102B0937202BF91AF91B6
:1018B0009F918F913F912F910F900FBE0F901F908E
:1018C000189526E8230F0296A11DB11DD2CFEDEF8A
:1018D000F2E01382128288EE93E0A0E0B0E084830D
:1018E0009583A683B7838BE091E09183808385EC19
:1018F00090E09587848784EC90E09787868780ECDA
:1019000090E0918B808B81EC90E0938B828B82ECCA
:1019100090E0958B848B86EC90E0978B868B118E74
:10192000128E138E148EEAE9F3E081E090E8918341
:101930008083138212821582148216821782118686
:101940001086138612860895CF93DF93CDB7DEB746
:10195000C954D1090FB6F894DEBF0FBECDBF78943D
:1019600084B5826084BD84B5816084BD85B58260A4
:1019700085BD85B5816085BD80916E008160809355
:101980006E001092810080918100826080938100BE
:1019900080918100816080938100809180008160CE
:1019A000809380008091B10084608093B100809129
:1019B000B00081608093B00080917A008460809351
:1019C0007A0080917A00826080937A0080917A0018
:1019D000816080937A0080917A00806880937A0099
:1019E0001092C100E0910D03F0910E0382E080831C
:1019F000E0910903F0910A031082E0910B03F0914A
:101A00000C038FEC808310921503E0911103F09189
:101A1000120386E08083E0910F03F0911003808130
:101A200080618083E0910F03F091100380818860D2
:101A30008083E0910F03F0911003808180688083A0
:101A4000E0910F03F091100380818F7D808366E326
:101A500072E0CE018C5B9F4F0E946206BE016C5B00
:101A60007F4FCE0101960E94280663E070E0CE0110
:101A700001960E94C9050E943601CE0101960E947E
:101A80009306CE018C5B9F4F0E94930660E085E039
:101A90000E949F0262E086E00E949F02EDEBF2E06E
:101AA0008AE3DF011D928A95E9F70E940D051092E5
:101AB000FB021092FC0280919C0390919D039093F5
:101AC000A3038093A2031092A5031092A40381E0C4
:101AD00090E09093B9028093B8029093B7028093FC
:101AE000B60280E0A82E80E0B82E0E9433038091D9
:101AF000FB02882331F06091FC02CE0101960E9426
:101B0000AC0380917302882309F453C00E944D07EF
:101B1000883009F04EC064EF71E080E090E00E94F0
:101B2000000304E010E061E081E00E949B068FB7B3
:101B3000F894C090F702D090F802E090F902F0908B
:101B4000FA028FBF26013701B8EB4B0EBBE05B1EDC
:101B5000611C711C2FB7F8948091F7029091F802E4
:101B6000A091F902B091FA022FBF84159505A60540
:101B7000B70558F18BE292E00E941A04CD28CE28D6
:101B8000CF2889F2101611065CF40150110964EF98
:101B900071E080E090E00E94000360E080E0C5CF4B
:101BA00001151105A1F782E692E00E941A040E9435
:101BB0000D05A114B10409F498CF0E947C0188237B
:101BC00009F493CF0E94000090CF0E9433038091CC
:101BD000FB02882331F06091FC02CE0101960E9445
:101BE000AC0380917302882309F4B4CF0E944D079F
:101BF0008330E9F2882309F4BDCF80E292E0BCCFC4
:101C0000BB274A3031F4992322F4BDE290958195A7
:101C10009F4F0C940C0EBB27FB015527AA27880F5A
:101C2000991FAA1FA41710F0A41B83955051B9F750
:101C3000A05DAA3308F0A95DA193009779F7B111CF
:101C4000B1931192CB010C94250EDC01FC01672F9E
:101C500071917723E1F7329704C07C916D93708383
:101C60006291AE17BF07C8F308952F923F924F922B
:101C70005F926F927F928F929F92AF92BF92CF921C
:101C8000DF92EF92FF920F931F93CF93DF93CDB725
:101C9000DEB7CA1BDB0B0FB6F894DEBF0FBECDBF9D
:101CA00009942A88398848885F846E847D848C846E
:101CB0009B84AA84B984C884DF80EE80FD800C8177
:101CC0001B81AA81B981CE0FD11D0FB6F894DEBF5A
:101CD0000FBECDBFED010895EE0FFF1F0590F491EB
:101CE000E02D09940F931F93CF93DF9382309105DA
:101CF00010F482E090E0E091A803F091A90330E0B5
:101D000020E0B0E0A0E0309799F42115310509F406
:101D10004AC0281B390B24303105D8F58A819B81B4
:101D20006115710589F1FB0193838283FE0111C066
:101D3000408151810281138148175907E0F048170B
:101D4000590799F4109761F012960C931297139615
:101D50001C933296CF01DF91CF911F910F9108957F
:101D60000093A8031093A903F4CF2115310551F076
:101D70004217530738F0A901DB019A01BD01DF01C9
:101D8000F801C1CFEF01F9CF9093A9038093A80385
:101D9000CDCFFE01E20FF31F8193919322503109C1
:101DA00039832883D7CF2091A6033091A703232B13
:101DB00041F420910301309104013093A703209353
:101DC000A60320910101309102012115310541F452
:101DD0002DB73EB74091050150910601241B350BEC
:101DE000E091A603F091A703E217F307A0F42E1BDE
:101DF0003F0B2817390778F0AC014E5F5F4F24176F
:101E0000350748F04E0F5F1F5093A7034093A6037A
:101E1000819391939FCFF0E0E0E09CCFCF93DF934D
:101E20000097E9F0FC01329713821282A091A80377
:101E3000B091A903ED0130E020E01097A1F42081DA
:101E40003181820F931F2091A6033091A703281799
:101E5000390709F061C0F093A703E093A603DF916F
:101E6000CF910895EA01CE17DF07E8F54A815B813B
:101E70009E0141155105B1F7E901FB83EA834991C0
:101E80005991C40FD51FEC17FD0761F48081918132
:101E90000296840F951FE90199838883828193813B
:101EA0009B838A83F0E0E0E012968D919C911397DA
:101EB0000097B9F52D913C911197CD010296820FB3
:101EC000931F2091A6033091A7032817390739F6ED
:101ED000309751F51092A9031092A803B093A7036D
:101EE000A093A603BCCFD383C28340815181840FCA
:101EF000951FC817D90761F44E5F5F4F888199819C
:101F0000480F591F518340838A819B819383828329
:101F10002115310509F0B0CFF093A903E093A80390
:101F20009ECFFD01DC01C0CF13821282D7CFB0E07B
:101F3000A0E0EDE9FFE00C94370E8C01009751F41E
:101F4000CB010E94720E8C01C801CDB7DEB7E0E173
:101F50000C94530EFC01E60FF71F9C01225031092F
:101F6000E217F30708F49DC0D901CD91DC911197D8
:101F7000C617D70798F0C530D10530F3CE010497C6
:101F80008617970708F3C61BD70B2297C193D193E7
:101F90006D937C93CF010E940E0FD6CF5B01AC1ADC
:101FA000BD0A4C018C0E9D1EA091A803B091A903FF
:101FB000512C412CF12CE12C109731F58091A60386
:101FC0009091A7038815990509F05CC0461657063D
:101FD00008F058C08091010190910201009741F4EE
:101FE0008DB79EB74091050150910601841B950B5A
:101FF000E817F90708F055C0F093A703E093A6038C
:10200000F90171836083A0CF8D919C9111971296F5
:102010006C90129713967C901397A815B90559F5F3
:102020006C0142E0C40ED11CCA14DB0420F1AC01E7
:102030004A195B09DA011296159780F06282738261
:1020400051834083D9016D937C93E114F10471F0C5
:10205000D7011396FC93EE93129776CF22968C0FAE
:102060009D1FF90191838083F301EFCFF093A903C2
:10207000E093A80369CF4816590608F42C017D01A6
:10208000D3019ACFCB010E94720E7C01009749F0D8
:10209000AE01B8010E945410C8010E940E0F8701C2
:1020A00053CF10E000E050CFFB01DC0102C00190F3
:1020B0000D9241505040D8F70895FB01DC018D91FD
:1020C000019080190110D9F3990B0895FB01DC01EF
:0E20D00001900D920020E1F70895F894FFCFE3
:1020DE00010000AA03800000000000B20109013FC8
:1020EE0001FF0170014E016201203078002030782E
:1020FE0030000A53454E443A00206E2873293D00A5
:10210E00206E2872293D002041534349493A270049
:10211E002720502F463A002028496E666F29004F1F
:10212E004B0052454A0052520052454A2900455230
:10213E005229000A524543563A00203C64726F7091
:10214E003E0027204352433A000A3E3E207265630A
:10215E00763A27002066726F6D000A3E3E20726549
:10216E0073703A200020746F006F6B3F0073656EC2
:10217E006420796F757220726F7574652072657147
:10218E00756573740048657979792100427979799A
:10219E0065210020285375706572202D20006F6B0D
:1021AE00000A3E3E2073656E643A27002720746F46
:1021BE00205072696D61727900726F757465206856
:1021CE00454C4C6F6F6F2120746F20307830320089
:1021DE00726F7574652053656520752120746F20AC
:1021EE0030783032000A3E3E20726563763A200027
:1021FE00203C52454A2F4552523E00203C74696D98
:10220E00656F75743E000A5365636F6E6461727913
:10221E0020446576696365202D20496E6974696E68
:10222E00672E2E2E0A4D7920416464726573733ABF
:0E223E002000203C63616E63656C65643E00A9
:00000001FF
