:100000000C9462000C948A000C948A000C948A0070
:100010000C948A000C948A000C948A000C948A0038
:100020000C948A000C948A000C948A000C948A0028
:100030000C948A000C948A000C948A000C948A0018
:100040000C94B60B0C948A000C94840B0C945E0BED
:100050000C948A000C948A000C948A000C948A00F8
:100060000C948A000C948A000000000024002700F1
:100070002A0000000000250028002B0000000000DE
:1000800023002600290004040404040404040202DA
:100090000202020203030303030301020408102007
:1000A0004080010204081020010204081020000012
:1000B0000008000201000003040700000000000027
:1000C0000000000C11241FBECFEFD8E0DEBFCDBF73
:1000D00023E0A8E6B2E001C01D92A43AB207E1F71E
:1000E00012E0A0E0B1E0E0E1F0E202C005900D9284
:1000F000A836B107D9F710E0C2E6D0E004C02197D6
:10010000FE010E94050EC136D107C9F70E943D0CC1
:100110000C9406100C94000020919E0330919F03D4
:100120002F5F3F4F30939F0320939E0390919A033C
:100130009923C1F090E09C01359527952575880F8E
:10014000991F8A7A822B282F30E0C90195958795CF
:10015000959587958373220F331F220F331F2C7CB5
:10016000822B829520919C0330919D03A9015827F1
:10017000CA01409194035091950328E0BC01880F77
:10018000991F77FF02C0842795272150B9F79093D4
:100190009D0380939C03089580919C0390919D03FF
:1001A00020919B03222371F19C013695279525759B
:1001B0003575880F991F8A7A9A7A822B932B9C0126
:1001C000369527953695279523733373880F991F96
:1001D000880F991F8C7C9C7C282B392BC901E4E06B
:1001E00096958795EA95E1F78F709F70F4E0220F5E
:1001F000331FFA95E1F7207F307F822B932B9827CE
:100200008927982720919803309199038227932773
:100210000895AF92BF92CF92DF92EF92FF920F9329
:100220001F93CF93DF936C017B018B01040F151F8C
:10023000EB015E01AE18BF08C017D10759F06991F4
:10024000D601ED91FC910190F081E02DC601099558
:10025000892B79F7C501DF91CF911F910F91FF9005
:10026000EF90DF90CF90BF90AF900895FC01448154
:1002700055816081718187EF92E00C940901FC0146
:10028000538D448D252F30E0842F90E0821B930BFB
:10029000541710F0CF96089501970895FC01918DA1
:1002A000828D981761F0A28DAE0FBF2FB11D5D96A4
:1002B0008C91928D9F5F9F73928F90E008958FEF46
:1002C0009FEF0895FC01918D828D981731F0828DFA
:1002D000E80FF11D858D90E008958FEF9FEF089551
:1002E000FC01918D228D892F90E0805C9F4F821BB5
:1002F00091098F739927089587EF92E00E9470010A
:1003000021E0892B09F420E0822F089580E090E01D
:10031000892B29F00E947C0181110C940000089522
:10032000FC01A48DA80FB92FB11DA35ABF4F2C916A
:10033000848D90E001968F739927848FA689B78961
:100340002C93A089B1898C91837080648C93938D58
:10035000848D981306C00288F389E02D80818F7DFB
:1003600080830895EF92FF920F931F93CF93DF93B3
:10037000EC0181E0888F9B8D8C8D98131AC0E889E1
:10038000F989808185FF15C09FB7F894EE89FF89B0
:100390006083E889F98980818370806480839FBF4E
:1003A00081E090E0DF91CF911F910F91FF90EF904E
:1003B0000895F62E0B8D10E00F5F1F4F0F7311275E
:1003C000E02E8C8D8E110CC00FB607FCFACFE88999
:1003D000F989808185FFF5CFCE010E949001F1CF90
:1003E000EB8DEC0FFD2FF11DE35AFF4FF0829FB70D
:1003F000F8940B8FEA89FB8980818062CFCFCF93FD
:10040000DF93EC01888D8823B9F0AA89BB89E8893C
:10041000F9898C9185FD03C0808186FD0DC00FB6E2
:1004200007FCF7CF8C9185FFF2CF808185FFEDCF60
:10043000CE010E949001E9CFDF91CF9108958330E2
:1004400081F028F4813099F08230A9F00895873046
:10045000A9F08830C9F08430B1F4809180008F7D9C
:1004600003C0809180008F7780938000089584B5C9
:100470008F7784BD089584B58F7DFBCF8091B000C8
:100480008F778093B00008958091B0008F7DF9CF71
:10049000CF93DF93282F30E0F901E255FF4F84918D
:1004A000F901E656FF4FD491F901EA57FF4FC49185
:1004B000CC23A1F081110E941F02EC2FF0E0EE0F7F
:1004C000FF1FE458FF4FA591B491EC91ED2381E01B
:1004D00090E009F480E0DF91CF91089580E090E012
:1004E000FACF1F93CF93DF93282F30E0F901E25525
:1004F000FF4F8491F901E656FF4FD491F901EA5775
:10050000FF4FC491CC23A9F0162F81110E941F0226
:10051000EC2FF0E0EE0FFF1FEE58FF4FA591B491C6
:100520008FB7F894EC91111108C0D095DE23DC93BD
:100530008FBFDF91CF911F910895DE2BF8CFCF931E
:10054000DF9390E0FC01E656FF4F24918A579F4FBE
:10055000FC0184918823C9F090E0880F991FFC0169
:10056000E859FF4FA591B491FC01EE58FF4FC5919A
:10057000D49161110DC09FB7F8948C91209582237E
:100580008C938881282328839FBFDF91CF91089582
:10059000623051F49FB7F8943C91822F8095832369
:1005A0008C93E8812E2BEFCF8FB7F894EC912E2B04
:1005B0002C938FBFEACF3FB7F89480916902909156
:1005C0006A02A0916B02B0916C0226B5A89B05C08F
:1005D0002F3F19F00196A11DB11D3FBFBA2FA92FC2
:1005E000982F8827BC01CD01620F711D811D911DBF
:1005F00042E0660F771F881F991F4A95D1F708952B
:100600008F929F92AF92BF92CF92DF92EF92FF9222
:100610006B017C010E94DB024B015C01C114D1041F
:10062000E104F104B9F00E94DB02681979098A0932
:100630009B09683E73408105910580F321E0C21A51
:10064000D108E108F10888EE880E83E0981EA11C0D
:10065000B11CE4CFFF90EF90DF90CF90BF90AF90B0
:100660009F908F900895CF92DF92EF92FF920F9319
:100670001F93CF938FB7F894C090F102D090F202FD
:10068000E090F302F090F4028FBF84E6C80ED11C14
:10069000E11CF11C0BE811E02FB7F8948091F102F6
:1006A0009091F202A091F302B091F4022FBF8C1549
:1006B0009D05AE05BF0508F048C085E00E944802D0
:1006C000892B09F43EC086E00E944802892BC9F5B7
:1006D00066E070E080E090E00E94000307E010E038
:1006E000C0E0C12CD12C7601C39485E00E94480261
:1006F000892B81F486E00E944802892B59F0D701AA
:10070000C601002E04C0880F991FAA1FBB1F0A94A0
:10071000D2F7C82B65E070E080E090E00E94000313
:100720000150110910F781E08093F502C093F602A1
:100730009C2FCF911F910F91FF90EF90DF90CF9062
:100740000895C8010197F1F7A7CF1092F502109212
:10075000F60280E090E0EDCFAC0120916D02222303
:1007600051F083E4EDE6F2E0DA0101900D928A9512
:10077000E1F7CA01089580916E0290916F0200978F
:1007800011F46E3771F7FC01E359FD4F6383019655
:1007900090936F0280936E028230910538F021E0D1
:1007A0006E3721F08034910508F420E020936D022B
:1007B000E0CFCF93DF93CDB7DEB7A1970FB6F89414
:1007C000DEBF0FBECDBF90E0B0E0A0E019A2FE01F9
:1007D000B196AC01BD014F7055276627772724E0FD
:1007E000B695A795979587952A95D1F74A3004F540
:1007F000405D42930097A105B10559F790E080E074
:10080000309769F0DF010D900020E9F71197AD01F5
:100810004E1B5F0BBF0187EF92E00E940901A1967A
:100820000FB6F894DEBF0FBECDBFDF91CF91089514
:10083000495CDFCFFC0101900020E9F73197AF015F
:10084000481B590BBC0187EF92E00C940901CF9231
:10085000DF92EF92FF920F931F93CF93DF93F82EC7
:10086000E62E61E085E00E949F0261E086E00E9442
:100870009F026FEF85E00E94710260E086E00E94B7
:10088000710265E070E080E090E00E940003C7E044
:10089000D0E0CF2CD12C86010C2E02C015950795E7
:1008A0000A94E2F7B801609570956170772785E04A
:1008B0000E947102B8016170772786E00E94710280
:1008C00065E070E080E090E00E940003219718F757
:1008D00060E085E00E9471026FEF86E00E94710285
:1008E00065E070E080E090E00E940003EE2041F0BF
:1008F00060E085E00E949F0262E086E00E949F0225
:100900008FE08F1578F08DE191E00E941A048F2D11
:10091000DF91CF911F910F91FF90EF90DF90CF90DB
:100920000C94D90389E191E0F0CFCF930E94CC00E1
:10093000C82F60E0892F0E94270460E08C2FCF91A0
:100940000C9427040F93CF93C82F811119C0822FC5
:10095000C22FC17021FDC26082FDC4604111C86018
:10096000862F60FDC06181FDC06282FDC06460E0D1
:100970008C2F0E9427048C2FCF910F910C948C0008
:100980008038A9F7822F20FDC1E881FDC26082FD79
:10099000C4604111C860002351F3C061E8CFE4E9AD
:1009A000F3E0228133813187208713861286682FF6
:1009B0008EE70C942704CF93DF93E7EBF2E02AE372
:1009C000DF011D922A95E9F7EC014C815D81342FFE
:1009D000252F4A33510510F03AE320E03093B50259
:1009E0002093B602A7EBB2E030E020E042175307B5
:1009F00089F0EC01E881F981309749F41092B40252
:100A0000E4EBF2E060816D932F5F3F4FEFCFE20F99
:100A1000F31FF8CFDF91CF910895EDE6F2E0108259
:100A200012821182E0E7F2E080E4DF011D928A95F4
:100A3000E9F70895FC0124813581232B39F421E065
:100A4000FB018081882349F020E007C080819181EB
:100A50000E94F60F21E0892BB9F7822F08950F939A
:100A60001F93CF93DF93EC0188819981009759F010
:100A70002A813B812617370730F081E0DF91CF9143
:100A80001F910F9108958B016F5F7F4F0E94300F70
:100A9000009759F0998388831B830A832C813D81B9
:100AA000232B59F7FC011082E8CF80E0E7CFEF92CB
:100AB000FF920F931F93CF93DF936115710541F45C
:100AC00080E0DF91CF911F910F91FF90EF900895FB
:100AD00041155105B1F07B01EC010C811D81040F22
:100AE000151FB8010E942F05882351F328813981F1
:100AF0008C819D81B701820F931F0E94FF0F1D8380
:100B00000C8381E0DECFCF93DF93EC018881998164
:100B1000009711F00E94A70E198218821D821C8274
:100B20001B821A82DF91CF910895EF92FF920F936B
:100B30001F93CF93DF9300D000D000D01F92CDB78A
:100B4000DEB77C01CB014AE08E010F5F1F4FB80179
:100B50000E94A40DF80101900020E9F73197AF0140
:100B6000401B510BB801C7010E945705811103C0FA
:100B7000C7010E948305C70127960FB6F894DEBF10
:100B80000FBECDBFDF91CF911F910F91FF90EF90DE
:100B90000895EF92FF920F931F93CF93DF93CDB7FA
:100BA000DEB728970FB6F894DEBF0FBECDBF7C012D
:100BB000CB014AE08E010F5F1F4FB8010E94990DD3
:100BC000F80101900020E9F73197AF01401B510B6C
:100BD000B801C7010E945705811103C0C7010E94D7
:100BE0008305C70128960FB6F894DEBF0FBECDBFB0
:100BF000DF91CF911F910F91FF90EF900895CF93C8
:100C0000DF93EC01FB0101900020E9F73197AF0180
:100C1000461B570B0E945705811103C0CE010E944D
:100C20008305CE01DF91CF910895CF93DF93EC013F
:100C3000FB0144815581608171810E9457058111BA
:100C400003C0CE010E948305CE01DF91CF910895AC
:100C5000EF92FF920F931F93CF93DF93EC011982D2
:100C600018821B821A821D821C828617970719F12F
:100C7000FB010081118101151105E9F0E480F58087
:100C8000B7010E942F05811109C0CE01DF91CF91DC
:100C90001F910F91FF90EF900C948305FD82EC82E1
:100CA000B80188819981DF91CF911F910F91FF90B9
:100CB000EF900C94FF0FDF91CF911F910F91FF9058
:100CC000EF900895EF92FF920F931F93CF93DF93CE
:100CD000EC017B01198218821B821A821D821C8200
:100CE000FB0101900020E9F731978F01061B170BDC
:100CF000B8010E942F05811109C0CE01DF91CF916B
:100D00001F910F91FF90EF900C9483051D830C832E
:100D1000B70188819981DF91CF911F910F91FF9049
:100D2000EF900C94FF0FFC0180819181009711F0EE
:100D30000C94A70E0895EF92FF920F931F93CF93F9
:100D4000DF93CDB7DEB72C970FB6F894DEBF0FBE9A
:100D5000CDBF882309F441C081E090E09093B302B5
:100D60008093B20282E291E00E941A0480E00E9425
:100D7000CF0481E08093000160E00E94270481E0BD
:100D80000E948C0000E02091B00241E06091B2022C
:100D900080E00E94A204E090B502F090B602E11457
:100DA000F10419F107EB12E09801275B3240C7010B
:100DB0004BE3E416F10410F08AE390E028173907BA
:100DC000D8F460E0F80181918F010E942704F801B6
:100DD000319780810E948C00E7CF662319F28091C1
:100DE000B2029091B3020196B9CF60E080E00E9418
:100DF000270480E00E948C000E94950481E00E94FC
:100E0000CF040091B0021091B102E090B202F090D4
:100E1000B30269E271E0CE0107960E946206BE014C
:100E2000695F7F4FCE0101960E942806B701CE016F
:100E300001960E94950560E371E00E94FF05B801EC
:100E40000E94950567E371E00E94FF0567EB72E081
:100E50000E94FF0560E471E00E94FF0561E070E020
:100E60000E94C90567E471E00E94FF050E943601F7
:100E7000CE0101960E949306CE0107960E9493062A
:100E80002C960FB6F894DEBF0FBECDBFDF91CF9189
:100E90001F910F91FF90EF9008955F926F927F9254
:100EA0008F929F92AF92BF92CF92DF92EF92FF927A
:100EB0000F931F93CF93DF93CDB7DEB7C855D109FA
:100EC0000FB6F894DEBF0FBECDBF81E090E09093E7
:100ED000B1028093B00250906D02712C5520C1F187
:100EE00000917202C02ED12C03E0D594C7940A95CC
:100EF000E1F783E691E00E941A04F12C20916E0242
:100F000030916F020F2D10E002171307A0F4035960
:100F10001D4FD80113968C91803150F089E191E0FA
:100F20000E941A04F80183810E94D903F394E6CF4A
:100F30008DE191E0F5CF70907102F2E07F1601F142
:100F40008AE691E00E941A040E940D0519E0712EB4
:100F5000872DC85ADF4F0FB6F894DEBF0FBECDBF46
:100F6000DF91CF911F910F91FF90EF90DF90CF9085
:100F7000BF90AF909F908F907F906F905F900895FB
:100F80008091720290E0AC01440F452F441F550B35
:100F9000452B09F084C2CE0101967C018AE3D7017A
:100FA0001D928A95E9F740E026503109842F90E0A0
:100FB0008217930758F4F701E80FF91F83599D4FE3
:100FC000DC0116968C9180834F5FF0CF8091960361
:100FD0009091970390939D0380939C0310929F039D
:100FE00010929E03B12C00916E0210916F028B2D16
:100FF00090E09801245031098217930740F48359F7
:101000009D4FFC0184810E948C00B394ECCF0E9420
:10101000CC00292F3327F801E359FD4F40814217B7
:10102000130639F421819927662463942817190639
:1010300009F0612C809196039091970390939D0302
:1010400080939C0310929F0310929E03860101706F
:101050001127FFE4CF2EF1E0DF2E611004C0E2E59E
:10106000CE2EE1E0DE2EA090B002B090B1028090D2
:10107000B2029090B30269E271E0CE018F5B9F4FA4
:101080000E946206BE016F5B7F4FCE01CB960E942D
:101090002806B401CE01CB960E94950560E371E06D
:1010A0000E94FF05B5010E94950567E371E00E946B
:1010B000FF05B7010E94FF0562E771E00E94FF058E
:1010C000B6010E94FF0561E471E00E94FF05B801CE
:1010D0000E94C90567E471E00E94FF050E94360185
:1010E000CE01CB960E949306CE018F5B9F4F0E944C
:1010F00093060091B0021091B102A090B202B0909C
:10110000B302B701CE01CB960E94620669E771E097
:10111000CE01895B9F4F0E946206BE01695B7F4FD3
:10112000CE018F5B9F4F0E942806BE01655C7F4FFA
:10113000CE018F5B9F4F0E94150662E771E00E940F
:10114000FF05B6010E94FF0569E271E00E94FF05FC
:10115000B5010E94950560E371E00E94FF05B801AA
:101160000E94950564E871E00E94FF050E94360127
:10117000CE018F5B9F4F0E949306CE01895B9F4FEC
:101180000E949306CE01CB960E94930680910001A7
:10119000803108F453C189E191E00E941A048091E2
:1011A00000010E94D903C090B002D090B10206E5C0
:1011B00011E0611002C002E511E06AE871E0CE01C1
:1011C0008F5B9F4F0E946206BE016F5B7F4FCE0117
:1011D000CB960E942806B801CE01CB960E94FF054F
:1011E00060E371E00E94FF05B6010E94950565E984
:1011F00071E00E94FF050E943601CE01CB960E944D
:101200009306CE018F5B9F4F0E9493068091000151
:10121000803108F416C189E191E00E941A0480919E
:1012200000010E94D903B701CE01895B9F4F0E9444
:10123000620669E971E0CE01895B9F4F0E941A0541
:10124000811102C1B701CE01835B9F4F0E946206EC
:101250006DE971E0CE01835B9F4F0E941A05A12CBE
:101260008111F4C0B701CE018D5A9F4F0E946206D2
:1012700065EB71E0CE018D5A9F4F0E941A05BB2489
:10128000B3948111B12CA52C11E016250091000119
:1012900082E291E00E941A0480E00E94CF04009351
:1012A000000160E0802F0E942704802F0E948C00A4
:1012B00000E0111101E02091B0024B2D6091B202CB
:1012C00080E80E94A2040E94950481E00E94CF045D
:1012D0001111BEC00FE511E0C090B002D090B10274
:1012E00060E371E0CE018F5B9F4F0E946206BE01FA
:1012F0006F5B7F4FCE01CB960E942806B601CE01D0
:10130000CB960E94950561E471E00E94FF056B2D6C
:1013100070E00E94C9056EEB71E00E94FF05B80104
:101320000E94FF050E943601CE01CB960E949306D3
:10133000CE018F5B9F4F0E949306AA2029F0CE0119
:101340008D5A9F4F0E949306552029F0CE01835B52
:101350009F4F0E949306CE01895B9F4F0E94930688
:101360000E940D05B701CE01CB960E94620669E985
:1013700071E0CE01CB960E941A0510E08111162D66
:10138000CE01CB960E94930669EC71E0111116C054
:10139000B701CE01CB960E9462066DE971E0CE01E5
:1013A000CB960E941A058111162DCE01CB960E9474
:1013B0009306112309F44FC064EE71E0CE01895BFE
:1013C0009F4F0E9462066CEC71E0CE018F5B9F4FD5
:1013D0000E946206BE016F5B7F4FCE01CB960E94DA
:1013E0002806BE01695B7F4FCE01CB960E94150691
:1013F00067ED71E00E94FF050E943601CE01CB9699
:101400000E949306CE018F5B9F4F0E949306BE0100
:10141000695B7F4FCE01CB960E942806CE01CB960A
:101420000E94DB04CE01CB960E949306CE01895B1D
:101430009F4F0E94930678E0772E8ACD8DE191E050
:10144000ACCE8DE191E0E9CEA12C512CB12C1CCF7A
:1014500009E511E041CFB701CE01CB960E946206AB
:1014600065EB71E0CE01CB960E941A058111162D15
:10147000CE01CB960E94930669EF71E011119ECFC9
:10148000662009F465CD8091B0029091B102019679
:101490009093B1028093B0027724739459CD9C014C
:1014A00066E0359527956A95E1F72230310509F018
:1014B0004FCD9C0144E0359527954A95E1F7122FD1
:1014C000117055E0959587955A95E1F7049711F5B8
:1014D000809196039091970390939D0380939C0332
:1014E00010929F0310929E0300E0E0906E02F09035
:1014F0006F02802F90E097012450310982179307E3
:1015000058F483599D4FDC0114968C910E948C00F5
:101510000F5FEBCF1260DCCF0E94CC00292F332766
:10152000F701E359FD4F40814217130631F4218141
:10153000992701E02817190609F000E08091960329
:101540009091970390939D0380939C0310929F0327
:1015500010929E03AFE58A2EA1E09A2E112351F03E
:10156000B9E58B2EB1E09B2E113021F0FEE58F2ED8
:10157000F1E09F2EB1E0CB22DD24EFE4AE2EE1E0DE
:10158000BE2E011104C072E5A72E71E0B72E609047
:10159000B0027090B10260E371E0CE01CB960E9480
:1015A0006206BE01655C7F4FCE0101960E9428064F
:1015B000B301CE0101960E94950563E771E00E9498
:1015C000FF05B5010E94FF0561E471E00E94FF057F
:1015D000B6010E94C9056EEB71E00E94FF05B401DF
:1015E0000E94FF050E943601CE0101960E949306DB
:1015F000CE01CB960E9493068090B0029090B102EB
:1016000066E5C62E61E0D62E112321F052E5C52EE7
:1016100051E0D52E6EE072E0CE01CB960E946206BC
:10162000BE01655C7F4FCE0101960E942806B6017F
:10163000CE0101960E94FF0563E771E00E94FF055D
:10164000B5010E94FF0560E371E00E94FF05B4014F
:101650000E94950564E871E00E94FF050E94360132
:10166000CE0101960E949306CE01CB960E9493066E
:1016700080910001803198F089E191E00E941A0484
:10168000809100010E94D9030E940D0511110AC02A
:1016900043E0742E01115CCC24E0722E59CC8DE114
:1016A00091E0ECCF97E0792E113009F051CC35E084
:1016B000732E01114DCC86E0782E4ACC1F920F92EA
:1016C0000FB60F9211242F933F934F935F936F9315
:1016D0007F938F939F93AF93BF93EF93FF9387EF86
:1016E00092E00E949001FF91EF91BF91AF919F9185
:1016F0008F917F916F915F914F913F912F910F90BB
:101700000FBE0F901F9018951F920F920FB60F9259
:1017100011242F938F939F93EF93FF93E0910703EF
:10172000F09108038081E0910D03F0910E0382FD9A
:101730001BC09081809110038F5F8F7320911103E4
:10174000821741F0E0911003F0E0E950FD4F958FD2
:1017500080931003FF91EF919F918F912F910F90A4
:101760000FBE0F901F9018958081F4CF1F920F929B
:101770000FB60F9211242F933F938F939F93AF93A4
:10178000BF938091F1029091F202A091F302B09187
:10179000F4023091680223E0230F2D3758F50196AB
:1017A000A11DB11D209368028093F1029093F20273
:1017B000A093F302B093F4028091690290916A02BF
:1017C000A0916B02B0916C020196A11DB11D809396
:1017D000690290936A02A0936B02B0936C02BF916E
:1017E000AF919F918F913F912F910F900FBE0F90CE
:1017F0001F90189526E8230F0296A11DB11DD2CF88
:10180000E7EFF2E01382128288EE93E0A0E0B0E00E
:1018100084839583A683B7838BE091E09183808353
:1018200085EC90E09587848784EC90E097878687A5
:1018300080EC90E0918B808B81EC90E0938B828B9D
:1018400082EC90E0958B848B86EC90E0978B868B76
:10185000118E128E138E148EE4E9F3E081E090E88D
:1018600091838083138212821582148216821782DA
:1018700011861086138612860895CF93DF93CDB715
:10188000DEB7C954D1090FB6F894DEBF0FBECDBF85
:10189000789484B5826084BD84B5816084BD85B54B
:1018A000826085BD85B5816085BD80916E00816057
:1018B00080936E00109281008091810082608093FD
:1018C00081008091810081608093810080918000FF
:1018D0008160809380008091B10084608093B1002A
:1018E0008091B00081608093B00080917A00846024
:1018F00080937A0080917A00826080937A00809150
:101900007A00816080937A0080917A008068809369
:101910007A001092C100E0910703F091080382E081
:101920008083E0910303F09104031082E0910503AA
:10193000F09106038FEC808310920F03E0910B036C
:10194000F0910C0386E08083E0910903F0910A0393
:10195000808180618083E0910903F0910A03808196
:1019600088608083E0910903F0910A038081806898
:101970008083E0910903F0910A0380818F7D808349
:101980006FE272E0CE018C5B9F4F0E946206BE0147
:101990006C5B7F4FCE0101960E94280662E070E0EA
:1019A000CE0101960E94C9050E943601CE01019622
:1019B0000E949306CE018C5B9F4F0E94930660E0CD
:1019C00085E00E949F0262E086E00E949F02E7EBB2
:1019D000F2E08AE3DF011D928A95E9F70E940D0586
:1019E0001092F5021092F60280919603909197035F
:1019F00090939D0380939C0310929F0310929E03EB
:101A000081E090E09093B3028093B2029093B10290
:101A10008093B00280E0A82E80E0B82E0E943303AD
:101A20008091F502882331F06091F602CE01019693
:101A30000E94AC0380916D02882309F453C00E9478
:101A40004D07883009F04EC064EF71E080E090E00F
:101A50000E94000304E010E061E081E00E949B0628
:101A60008FB7F894C090F102D090F202E090F302A8
:101A7000F090F4028FBF26013701B8EB4B0EBBE0AC
:101A80005B1E611C711C2FB7F8948091F10290913C
:101A9000F202A091F302B091F4022FBF84159505D4
:101AA000A605B70558F184E292E00E941A04CD28F9
:101AB000CE28CF2889F2101611065CF401501109C6
:101AC00064EF71E080E090E00E94000360E080E05D
:101AD000C5CF01151105A1F78BE592E00E941A040C
:101AE0000E940D05A114B10409F498CF0E947C0155
:101AF000882309F493CF0E94000090CF0E94330303
:101B00008091F502882331F06091F602CE010196B2
:101B10000E94AC0380916D02882309F4B4CF0E9427
:101B20004D078330E9F2882309F4BDCF89E192E0C3
:101B3000BCCFBB274A3031F4992322F4BDE2909503
:101B400081959F4F0C94A50DBB27FB015527AA2714
:101B5000880F991FAA1FA41710F0A41B839550513A
:101B6000B9F7A05DAA3308F0A95DA193009779F7B2
:101B7000B111B1931192CB010C94BE0DDC01FC01AB
:101B8000672F71917723E1F7329704C07C916D93B1
:101B900070836291AE17BF07C8F308952F923F92EA
:101BA0004F925F926F927F928F929F92AF92BF926D
:101BB000CF92DF92EF92FF920F931F93CF93DF9319
:101BC000CDB7DEB7CA1BDB0B0FB6F894DEBF0FBE76
:101BD000CDBF09942A88398848885F846E847D84C3
:101BE0008C849B84AA84B984C884DF80EE80FD80C5
:101BF0000C811B81AA81B981CE0FD11D0FB6F8943B
:101C0000DEBF0FBECDBFED010895EE0FFF1F0590A3
:101C1000F491E02D09940F931F93CF93DF938230BB
:101C2000910510F482E090E0E091A203F091A3030B
:101C300030E020E0B0E0A0E0309799F421153105C4
:101C400009F44AC0281B390B24303105D8F58A81A4
:101C50009B816115710589F1FB0193838283FE01EC
:101C600011C0408151810281138148175907E0F06A
:101C70004817590799F4109761F012960C93129730
:101C800013961C933296CF01DF91CF911F910F9144
:101C900008950093A2031093A303F4CF21153105F7
:101CA00051F04217530738F0A901DB019A01BD0139
:101CB000DF01F801C1CFEF01F9CF9093A303809327
:101CC000A203CDCFFE01E20FF31F81939193225027
:101CD000310939832883D7CF2091A0033091A10304
:101CE000232B41F420910301309104013093A1038F
:101CF0002093A003209101013091020121153105AB
:101D000041F42DB73EB74091050150910601241BC7
:101D1000350BE091A003F091A103E217F307A0F4C3
:101D20002E1B3F0B2817390778F0AC014E5F5F4F31
:101D30002417350748F04E0F5F1F5093A1034093BF
:101D4000A003819391939FCFF0E0E0E09CCFCF93ED
:101D5000DF930097E9F0FC01329713821282A09181
:101D6000A203B091A303ED0130E020E01097A1F4AD
:101D700020813181820F931F2091A0033091A10314
:101D80002817390709F061C0F093A103E093A0037D
:101D9000DF91CF910895EA01CE17DF07E8F54A8178
:101DA0005B819E0141155105B1F7E901FB83EA838F
:101DB00049915991C40FD51FEC17FD0761F480813B
:101DC00091810296840F951FE9019983888382810E
:101DD00093819B838A83F0E0E0E012968D919C9141
:101DE00013970097B9F52D913C911197CD0102966B
:101DF000820F931F2091A0033091A1032817390768
:101E000039F6309751F51092A3031092A203B093C4
:101E1000A103A093A003BCCFD383C283408151818F
:101E2000840F951FC817D90761F44E5F5F4F8881F3
:101E30009981480F591F518340838A819B819383E5
:101E400082832115310509F0B0CFF093A303E0930D
:101E5000A2039ECFFD01DC01C0CF13821282D7CF37
:101E6000B0E0A0E0E6E3FFE00C94D00D8C01009719
:101E700051F4CB010E940B0E8C01C801CDB7DEB727
:101E8000E0E10C94EC0DFC01E60FF71F9C012250E1
:101E90003109E217F30708F49DC0D901CD91DC9117
:101EA0001197C617D70798F0C530D10530F3CE018A
:101EB00004978617970708F3C61BD70B2297C19381
:101EC000D1936D937C93CF010E94A70ED6CF5B0177
:101ED000AC1ABD0A4C018C0E9D1EA091A203B091BC
:101EE000A303512C412CF12CE12C109731F580915A
:101EF000A0039091A1038815990509F05CC04616CE
:101F0000570608F058C08091010190910201009796
:101F100041F48DB79EB74091050150910601841B95
:101F2000950BE817F90708F055C0F093A103E0936B
:101F3000A003F90171836083A0CF8D919C911197CB
:101F400012966C90129713967C901397A815B9056A
:101F500059F56C0142E0C40ED11CCA14DB0420F117
:101F6000AC014A195B09DA011296159780F062827A
:101F7000738251834083D9016D937C93E114F10402
:101F800071F0D7011396FC93EE93129776CF2296B9
:101F90008C0F9D1FF90191838083F301EFCFF093A4
:101FA000A303E093A20369CF4816590608F42C0155
:101FB0007D01D3019ACFCB010E940B0E7C010097CB
:101FC00049F0AE01B8010E94ED0FC8010E94A70EB2
:101FD000870153CF10E000E050CFFB01DC0102C0CD
:101FE00001900D9241505040D8F70895FB01DC015B
:101FF0008D91019080190110D9F3990B0895FB017F
:10200000DC0101900D920020E1F70895F894FFCFD4
:10201000010000A403800000000000B20109013F9C
:1020200001FF0170014E01620120307800203078FC
:1020300030000A53454E443A00206E2873293D0073
:10204000206E2872293D002041534349493A270018
:102050002720502F463A002028496E666F29004FEE
:102060004B0052454A0052520052454A29004552FF
:102070005229000A524543563A00203C64726F7060
:102080003E0027204352433A000A3E3E20726563D9
:10209000763A27002066726F6D000A3E3E20726518
:1020A00073703A200020746F006F6B3F0073656E91
:1020B0006420796F757220726F7574652072657116
:1020C000756573740068454C4C6F6F6F2100202854
:1020D0005375706572202D20006F6B000A3E3E2004
:1020E00073656E643A27002720746F205072696D03
:1020F00061727900726F757465204865797979210C
:1021000020746F203078303300726F757465204210
:10211000797979652120746F2030783033000A3E58
:102120003E20726563763A2000203C52454A2F4596
:1021300052523E00203C74696D656F75743E000A12
:102140005365636F6E646172792044657669636577
:10215000202D20496E6974696E672E2E2E0A4D79E6
:1021600020416464726573733A2000203C63616EA1
:0821700063656C65643E00002C
:00000001FF
